{
  "abi": [
    {
      "type": "function",
      "name": "allStructsInternal",
      "inputs": [],
      "outputs": [
        {
          "name": "",
          "type": "tuple",
          "internalType": "struct StructsC.OuterStruct",
          "components": [
            {
              "name": "nested",
              "type": "tuple",
              "internalType": "struct StructsC.NestedStruct",
              "components": [
                {
                  "name": "inner",
                  "type": "tuple",
                  "internalType": "struct StructsC.InnyStruct",
                  "components": [
                    {
                      "name": "innerVal",
                      "type": "uint256",
                      "internalType": "uint256"
                    }
                  ]
                }
              ]
            }
          ]
        }
      ],
      "stateMutability": "pure"
    },
    {
      "type": "function",
      "name": "innerStructIsExternal",
      "inputs": [],
      "outputs": [
        {
          "name": "",
          "type": "tuple",
          "internalType": "struct StructsC.CStruct",
          "components": [
            {
              "name": "inner",
              "type": "tuple",
              "internalType": "struct IStructs.InnerStruct",
              "components": [
                {
                  "name": "boolVal",
                  "type": "bool",
                  "internalType": "bool"
                }
              ]
            }
          ]
        }
      ],
      "stateMutability": "pure"
    }
  ],
  "bytecode": {
    "object": "0x608060405234801561001057600080fd5b5060f48061001f6000396000f3fe6080604052348015600f57600080fd5b506004361060325760003560e01c80638012d826146037578063fc0db1de14606c575b600080fd5b604080518082018252600060208083018281529092528251808401845280830182815290529151918252015b60405180910390f35b608e60408051606081018252600091810191825260208101918252908152609e565b6040519051515181526020016063565b50604080516060810182526001918101918252602081019182529081529056fea2646970667358221220a897fe982f8c33895641b65745ff946b07724c9d9115b63b8c097c9d855b260464736f6c63430008160033",
    "linkReferences": {}
  },
  "methodIdentifiers": {
    "allStructsInternal()": "fc0db1de",
    "innerStructIsExternal()": "8012d826"
  },
  "id": 3
}