{
  "abi": [
    {
      "inputs": [],
      "name": "allStructsInternal",
      "outputs": [
        {
          "components": [
            {
              "components": [
                {
                  "components": [
                    {
                      "internalType": "uint256",
                      "name": "innerVal",
                      "type": "uint256"
                    }
                  ],
                  "internalType": "struct StructsC.InnerStruct",
                  "name": "inner",
                  "type": "tuple"
                }
              ],
              "internalType": "struct StructsC.NestedStruct",
              "name": "nested",
              "type": "tuple"
            }
          ],
          "internalType": "struct StructsC.OuterStruct",
          "name": "",
          "type": "tuple"
        }
      ],
      "stateMutability": "pure",
      "type": "function"
    },
    {
      "inputs": [],
      "name": "innerStructIsExternal",
      "outputs": [
        {
          "components": [
            {
              "components": [
                {
                  "internalType": "bool",
                  "name": "boolVal",
                  "type": "bool"
                }
              ],
              "internalType": "struct IStructs.InnerStruct",
              "name": "inner",
              "type": "tuple"
            }
          ],
          "internalType": "struct StructsC.CStruct",
          "name": "",
          "type": "tuple"
        }
      ],
      "stateMutability": "pure",
      "type": "function"
    }
  ],
  "bytecode": {
    "object": "0x608060405234801561001057600080fd5b5060f48061001f6000396000f3fe6080604052348015600f57600080fd5b506004361060325760003560e01c80638012d826146037578063fc0db1de14606c575b600080fd5b604080518082018252600060208083018281529092528251808401845280830182815290529151918252015b60405180910390f35b608e60408051606081018252600091810191825260208101918252908152609e565b6040519051515181526020016063565b50604080516060810182526001918101918252602081019182529081529056fea26469706673582212205832f310c5199a52899b1a9a6b6a9112ad5ae118b46961c9b62c68b6f711424f64736f6c63430008130033",
    "linkReferences": {}
  },
  "methodIdentifiers": {
    "allStructsInternal()": "fc0db1de",
    "innerStructIsExternal()": "8012d826"
  },
  "id": 1
}