{
  "abi": [
    {
      "type": "constructor",
      "inputs": [],
      "stateMutability": "nonpayable"
    },
    {
      "type": "function",
      "name": "add",
      "inputs": [
        {
          "name": "a",
          "type": "int256",
          "internalType": "int256"
        },
        {
          "name": "b",
          "type": "int256",
          "internalType": "int256"
        }
      ],
      "outputs": [
        {
          "name": "",
          "type": "int256",
          "internalType": "int256"
        }
      ],
      "stateMutability": "pure"
    }
  ],
  "bytecode": {
    "object": "0x608060405234801561001057600080fd5b5061014b806100206000396000f3fe608060405234801561001057600080fd5b506004361061002b5760003560e01c8063a5f3c23b14610030575b600080fd5b61004361003e3660046100da565b610055565b60405190815260200160405180910390f35b60405163a5f3c23b60e01b8152600481018390526024810182905260009073__$81c732ea87169659ae18eec7be97daeb59$__9063a5f3c23b90604401602060405180830381865af41580156100af573d6000803e3d6000fd5b505050506040513d601f19601f820116820180604052508101906100d391906100fc565b9392505050565b600080604083850312156100ed57600080fd5b50508035926020909101359150565b60006020828403121561010e57600080fd5b505191905056fea26469706673582212203e385201b901c32fa0479ef9dd1325389f0f2975f8a784d655f0e38b1b98e6e064736f6c63430008160033",
    "linkReferences": {
      "pypechain/test/deploy_linking/contracts/MyLibrary.sol": {
        "MyLibrary": [
          {
            "start": 149,
            "length": 20
          }
        ]
      }
    }
  },
  "methodIdentifiers": {
    "add(int256,int256)": "a5f3c23b"
  },
  "id": 0
}