{
  "abi": [
    {
      "type": "function",
      "name": "add",
      "inputs": [
        {
          "name": "a",
          "type": "int256",
          "internalType": "int256"
        },
        {
          "name": "b",
          "type": "int256",
          "internalType": "int256"
        }
      ],
      "outputs": [
        {
          "name": "",
          "type": "int256",
          "internalType": "int256"
        }
      ],
      "stateMutability": "pure"
    }
  ],
  "bytecode": {
    "object": "0x60f6610039600b82828239805160001a60731461002c57634e487b7160e01b600052600060045260246000fd5b30600052607381538281f3fe730000000000000000000000000000000000000000301460806040526004361060335760003560e01c8063a5f3c23b146038575b600080fd5b60476043366004606a565b6059565b60405190815260200160405180910390f35b600060638284608b565b9392505050565b60008060408385031215607c57600080fd5b50508035926020909101359150565b808201828112600083128015821682158216171560b857634e487b7160e01b600052601160045260246000fd5b50509291505056fea264697066735822122005a4ed8899d0d0b37e2e1469b5fa9e841609aeb03530a92c9c31c0993e8364b864736f6c63430008160033",
    "linkReferences": {}
  },
  "methodIdentifiers": {
    "add(int256,int256)": "a5f3c23b"
  },
  "id": 1
}