{
  "abi": [
    {
      "type": "function",
      "name": "noNameSingleValue",
      "inputs": [
        {
          "name": "x",
          "type": "uint256",
          "internalType": "uint256"
        }
      ],
      "outputs": [
        {
          "name": "",
          "type": "uint256",
          "internalType": "uint256"
        }
      ],
      "stateMutability": "pure"
    },
    {
      "type": "function",
      "name": "singleSimpleStruct",
      "inputs": [],
      "outputs": [
        {
          "name": "",
          "type": "tuple",
          "internalType": "struct IStructs.SimpleStruct",
          "components": [
            {
              "name": "intVal",
              "type": "uint256",
              "internalType": "uint256"
            },
            {
              "name": "strVal",
              "type": "string",
              "internalType": "string"
            }
          ]
        }
      ],
      "stateMutability": "pure"
    }
  ],
  "bytecode": {
    "object": "0x608060405234801561001057600080fd5b50610166806100206000396000f3fe608060405234801561001057600080fd5b50600436106100365760003560e01c8063389e91021461003b5780636456bc791461005f575b600080fd5b61004c6100493660046100b5565b90565b6040519081526020015b60405180910390f35b604080518082018252600081526060602091820152815180830183526001815282518084018452601081526f596f7520617265206e756d626572203160801b8184015291810191909152905161005691906100ce565b6000602082840312156100c757600080fd5b5035919050565b60006020808352835160208401526020840151604080850152805180606086015260005b8181101561010e578281018401518682016080015283016100f2565b506000608082870101526080601f19601f83011686010193505050509291505056fea2646970667358221220ad88b65d8d939f33e6b0c7fb080cedf1622d450c939626245098b934f5f8dcc164736f6c63430008160033",
    "linkReferences": {}
  },
  "methodIdentifiers": {
    "noNameSingleValue(uint256)": "389e9102",
    "singleSimpleStruct()": "6456bc79"
  },
  "id": 2
}