{
  "abi": [
    {
      "type": "function",
      "name": "revertWithErrorOne",
      "inputs": [],
      "outputs": [],
      "stateMutability": "pure"
    },
    {
      "type": "function",
      "name": "revertWithErrorThree",
      "inputs": [
        {
          "name": "ages",
          "type": "tuple",
          "internalType": "struct Errors.Ages",
          "components": [
            {
              "name": "bart",
              "type": "uint256",
              "internalType": "uint256"
            },
            {
              "name": "lisa",
              "type": "uint256",
              "internalType": "uint256"
            },
            {
              "name": "homer",
              "type": "uint256",
              "internalType": "uint256"
            },
            {
              "name": "marge",
              "type": "uint256",
              "internalType": "uint256"
            }
          ]
        }
      ],
      "outputs": [],
      "stateMutability": "pure"
    },
    {
      "type": "function",
      "name": "revertWithErrorTwo",
      "inputs": [],
      "outputs": [],
      "stateMutability": "pure"
    },
    {
      "type": "error",
      "name": "One",
      "inputs": []
    },
    {
      "type": "error",
      "name": "Three",
      "inputs": [
        {
          "name": "trueOrFalse",
          "type": "bool",
          "internalType": "bool"
        },
        {
          "name": "theSimpsons",
          "type": "tuple",
          "internalType": "struct Errors.Ages",
          "components": [
            {
              "name": "bart",
              "type": "uint256",
              "internalType": "uint256"
            },
            {
              "name": "lisa",
              "type": "uint256",
              "internalType": "uint256"
            },
            {
              "name": "homer",
              "type": "uint256",
              "internalType": "uint256"
            },
            {
              "name": "marge",
              "type": "uint256",
              "internalType": "uint256"
            }
          ]
        },
        {
          "name": "who",
          "type": "uint8",
          "internalType": "enum Errors.Simpsons"
        }
      ]
    },
    {
      "type": "error",
      "name": "Two",
      "inputs": [
        {
          "name": "message",
          "type": "string",
          "internalType": "string"
        },
        {
          "name": "who",
          "type": "address",
          "internalType": "address"
        },
        {
          "name": "value",
          "type": "uint8",
          "internalType": "uint8"
        }
      ]
    }
  ],
  "bytecode": {
    "object": "0x608060405234801561001057600080fd5b5061021a806100206000396000f3fe608060405234801561001057600080fd5b50600436106100415760003560e01c8063987daa8214610046578063a13e7b711461005b578063dc785aeb14610063575b600080fd5b610059610054366004610112565b61006b565b005b610059610095565b6100596100ae565b60008160006040516309b8b98960e01b815260040161008c93929190610186565b60405180910390fd5b604051630be0c21160e41b815260040160405180910390fd5b60405162f1f17b60e11b815260606004820152602560648201527f492077696c6c206e6f7420706c6564676520616c6c656769616e636520746f206084820152642130b93a1760d91b60a48201526000602482015260ff604482015260c40161008c565b60006080828403121561012457600080fd5b6040516080810181811067ffffffffffffffff8211171561015557634e487b7160e01b600052604160045260246000fd5b8060405250823581526020830135602082015260408301356040820152606083013560608201528091505092915050565b600060c082019050841515825283516020830152602084015160408301526040840151606083015260608401516080830152600483106101d657634e487b7160e01b600052602160045260246000fd5b8260a083015294935050505056fea2646970667358221220fbd0006d906ad7db99a5e4a04ebeb72141c1bdb4a68a5d5d18ad8b58cac0662a64736f6c63430008160033",
    "linkReferences": {}
  },
  "methodIdentifiers": {
    "revertWithErrorOne()": "a13e7b71",
    "revertWithErrorThree((uint256,uint256,uint256,uint256))": "987daa82",
    "revertWithErrorTwo()": "dc785aeb"
  },
  "id": 0
}