{
  "abi": [
    {
      "type": "function",
      "name": "revertWithErrorOne",
      "inputs": [],
      "outputs": [],
      "stateMutability": "pure"
    },
    {
      "type": "function",
      "name": "revertWithErrorThree",
      "inputs": [],
      "outputs": [],
      "stateMutability": "pure"
    },
    {
      "type": "function",
      "name": "revertWithErrorTwo",
      "inputs": [],
      "outputs": [],
      "stateMutability": "pure"
    },
    {
      "type": "error",
      "name": "One",
      "inputs": []
    },
    {
      "type": "error",
      "name": "Three",
      "inputs": [
        {
          "name": "trueOrFalse",
          "type": "bool",
          "internalType": "bool"
        },
        {
          "name": "theSimpsons",
          "type": "tuple",
          "internalType": "struct Errors.Ages",
          "components": [
            {
              "name": "bart",
              "type": "uint256",
              "internalType": "uint256"
            },
            {
              "name": "lisa",
              "type": "uint256",
              "internalType": "uint256"
            },
            {
              "name": "homer",
              "type": "uint256",
              "internalType": "uint256"
            },
            {
              "name": "marge",
              "type": "uint256",
              "internalType": "uint256"
            }
          ]
        },
        {
          "name": "who",
          "type": "uint8",
          "internalType": "enum Errors.Simpsons"
        }
      ]
    },
    {
      "type": "error",
      "name": "Two",
      "inputs": [
        {
          "name": "message",
          "type": "string",
          "internalType": "string"
        },
        {
          "name": "who",
          "type": "address",
          "internalType": "address"
        },
        {
          "name": "value",
          "type": "uint8",
          "internalType": "uint8"
        }
      ]
    }
  ],
  "bytecode": {
    "object": "0x608060405234801561001057600080fd5b50610216806100206000396000f3fe608060405234801561001057600080fd5b50600436106100415760003560e01c806349cbdbf514610046578063a13e7b7114610050578063dc785aeb14610058575b600080fd5b61004e610060565b005b61004e6100ac565b61004e6100c5565b60408051608081018252600181526002602082015260038183015260046060820181905291516309b8b98960e01b815290916100a3916000918491839101610182565b60405180910390fd5b604051630be0c21160e41b815260040160405180910390fd5b60405162f1f17b60e11b815260606004820152607160648201527f492077696c6c206e6f7420706c6564676520616c6c656769616e636520746f2060848201527f426172742e20492077696c6c206e6f7420706c6564676520616c6c656769616e60a48201527f636520746f20426172742e20492077696c6c206e6f7420706c6564676520616c60c4820152703632b3b4b0b731b2903a37902130b93a1760791b60e48201526000602482015260ff6044820152610104016100a3565b600060c082019050841515825283516020830152602084015160408301526040840151606083015260608401516080830152600483106101d257634e487b7160e01b600052602160045260246000fd5b8260a083015294935050505056fea2646970667358221220296623bdd3b38f3766971b76f4c245b8f5a41426d160fc493f0bfc894995e25e64736f6c63430008160033",
    "linkReferences": {}
  },
  "methodIdentifiers": {
    "revertWithErrorOne()": "a13e7b71",
    "revertWithErrorThree()": "49cbdbf5",
    "revertWithErrorTwo()": "dc785aeb"
  },
  "id": 0
}