{
  "abi": [
    {
      "type": "function",
      "name": "doSomething",
      "inputs": [
        {
          "name": "simpleStruct",
          "type": "tuple",
          "internalType": "struct OverloadedMethods.SimpleStruct",
          "components": [
            {
              "name": "strVal",
              "type": "string",
              "internalType": "string"
            },
            {
              "name": "intVal",
              "type": "uint256",
              "internalType": "uint256"
            }
          ]
        }
      ],
      "outputs": [
        {
          "name": "",
          "type": "tuple",
          "internalType": "struct OverloadedMethods.SimpleStruct",
          "components": [
            {
              "name": "strVal",
              "type": "string",
              "internalType": "string"
            },
            {
              "name": "intVal",
              "type": "uint256",
              "internalType": "uint256"
            }
          ]
        }
      ],
      "stateMutability": "pure"
    },
    {
      "type": "function",
      "name": "doSomething",
      "inputs": [
        {
          "name": "x",
          "type": "uint256",
          "internalType": "uint256"
        },
        {
          "name": "s",
          "type": "string",
          "internalType": "string"
        }
      ],
      "outputs": [
        {
          "name": "int_input",
          "type": "uint256",
          "internalType": "uint256"
        },
        {
          "name": "",
          "type": "string",
          "internalType": "string"
        }
      ],
      "stateMutability": "pure"
    },
    {
      "type": "function",
      "name": "doSomething",
      "inputs": [
        {
          "name": "simpleStructVec",
          "type": "tuple[]",
          "internalType": "struct OverloadedMethods.SimpleStruct[]",
          "components": [
            {
              "name": "strVal",
              "type": "string",
              "internalType": "string"
            },
            {
              "name": "intVal",
              "type": "uint256",
              "internalType": "uint256"
            }
          ]
        }
      ],
      "outputs": [
        {
          "name": "",
          "type": "tuple[]",
          "internalType": "struct OverloadedMethods.SimpleStruct[]",
          "components": [
            {
              "name": "strVal",
              "type": "string",
              "internalType": "string"
            },
            {
              "name": "intVal",
              "type": "uint256",
              "internalType": "uint256"
            }
          ]
        }
      ],
      "stateMutability": "pure"
    },
    {
      "type": "function",
      "name": "doSomething",
      "inputs": [],
      "outputs": [
        {
          "name": "",
          "type": "uint256",
          "internalType": "uint256"
        }
      ],
      "stateMutability": "pure"
    },
    {
      "type": "function",
      "name": "doSomething",
      "inputs": [
        {
          "name": "s",
          "type": "string",
          "internalType": "string"
        }
      ],
      "outputs": [
        {
          "name": "",
          "type": "string",
          "internalType": "string"
        }
      ],
      "stateMutability": "pure"
    },
    {
      "type": "function",
      "name": "doSomething",
      "inputs": [
        {
          "name": "x",
          "type": "uint256",
          "internalType": "uint256"
        }
      ],
      "outputs": [
        {
          "name": "",
          "type": "uint256",
          "internalType": "uint256"
        }
      ],
      "stateMutability": "pure"
    },
    {
      "type": "function",
      "name": "doSomething",
      "inputs": [
        {
          "name": "x",
          "type": "uint256",
          "internalType": "uint256"
        },
        {
          "name": "y",
          "type": "uint256",
          "internalType": "uint256"
        }
      ],
      "outputs": [
        {
          "name": "added",
          "type": "uint256",
          "internalType": "uint256"
        }
      ],
      "stateMutability": "pure"
    }
  ],
  "bytecode": {
    "object": "0x608060405234801561001057600080fd5b506105f7806100206000396000f3fe608060405234801561001057600080fd5b506004361061007d5760003560e01c8063826926791161005b57806382692679146101135780638ae3048e14610124578063a6b206bf1461013f578063b2dd1d791461015257600080fd5b80631d37834b146100825780633b6c27c4146100d55780634a4c53e9146100f5575b600080fd5b6100bf6100903660046102b1565b604080518082018252606081526000602091820152815180830190925282518252918201519181019190915290565b6040516100cc919061035d565b60405180910390f35b6100e76100e3366004610370565b9091565b6040516100cc9291906103b7565b6101066101033660046103d0565b90565b6040516100cc9190610493565b60025b6040519081526020016100cc565b6101326101033660046104f7565b6040516100cc919061052c565b61011661014d36600461053f565b610165565b610116610160366004610558565b610178565b600061017282600261057a565b92915050565b6000610184828461059f565b9392505050565b634e487b7160e01b600052604160045260246000fd5b604051601f8201601f1916810167ffffffffffffffff811182821017156101ca576101ca61018b565b604052919050565b600082601f8301126101e357600080fd5b813567ffffffffffffffff8111156101fd576101fd61018b565b610210601f8201601f19166020016101a1565b81815284602083860101111561022557600080fd5b816020850160208301376000918101602001919091529392505050565b60006040828403121561025457600080fd5b6040516040810167ffffffffffffffff82821081831117156102785761027861018b565b81604052829350843591508082111561029057600080fd5b5061029d858286016101d2565b825250602083013560208201525092915050565b6000602082840312156102c357600080fd5b813567ffffffffffffffff8111156102da57600080fd5b6102e684828501610242565b949350505050565b6000815180845260005b81811015610314576020818501810151868301820152016102f8565b506000602082860101526020601f19601f83011685010191505092915050565b600081516040845261034960408501826102ee565b602093840151949093019390935250919050565b6020815260006101846020830184610334565b6000806040838503121561038357600080fd5b82359150602083013567ffffffffffffffff8111156103a157600080fd5b6103ad858286016101d2565b9150509250929050565b8281526040602082015260006102e660408301846102ee565b600060208083850312156103e357600080fd5b823567ffffffffffffffff808211156103fb57600080fd5b818501915085601f83011261040f57600080fd5b8135818111156104215761042161018b565b8060051b6104308582016101a1565b918252838101850191858101908984111561044a57600080fd5b86860192505b83831015610486578235858111156104685760008081fd5b6104768b89838a0101610242565b8352509186019190860190610450565b9998505050505050505050565b600060208083016020845280855180835260408601915060408160051b87010192506020870160005b828110156104ea57603f198886030184526104d8858351610334565b945092850192908501906001016104bc565b5092979650505050505050565b60006020828403121561050957600080fd5b813567ffffffffffffffff81111561052057600080fd5b6102e6848285016101d2565b60208152600061018460208301846102ee565b60006020828403121561055157600080fd5b5035919050565b6000806040838503121561056b57600080fd5b50508035926020909101359150565b808202811582820484141761017257634e487b7160e01b600052601160045260246000fd5b6000826105bc57634e487b7160e01b600052601260045260246000fd5b50049056fea2646970667358221220fbb67c256adf4df798aa96e09c7826472fcd082baac0e33935ae8ea94457a89764736f6c63430008160033",
    "linkReferences": {}
  },
  "methodIdentifiers": {
    "doSomething((string,uint256))": "1d37834b",
    "doSomething((string,uint256)[])": "4a4c53e9",
    "doSomething()": "82692679",
    "doSomething(string)": "8ae3048e",
    "doSomething(uint256)": "a6b206bf",
    "doSomething(uint256,string)": "3b6c27c4",
    "doSomething(uint256,uint256)": "b2dd1d79"
  },
  "id": 0
}