{
  "abi": [
    {
      "type": "function",
      "name": "doSomething",
      "inputs": [
        {
          "name": "simpleStruct",
          "type": "tuple",
          "internalType": "struct OverloadedMethods.SimpleStruct",
          "components": [
            {
              "name": "strVal",
              "type": "string",
              "internalType": "string"
            },
            {
              "name": "intVal",
              "type": "uint256",
              "internalType": "uint256"
            }
          ]
        }
      ],
      "outputs": [
        {
          "name": "",
          "type": "tuple",
          "internalType": "struct OverloadedMethods.SimpleStruct",
          "components": [
            {
              "name": "strVal",
              "type": "string",
              "internalType": "string"
            },
            {
              "name": "intVal",
              "type": "uint256",
              "internalType": "uint256"
            }
          ]
        }
      ],
      "stateMutability": "pure"
    },
    {
      "type": "function",
      "name": "doSomething",
      "inputs": [
        {
          "name": "x",
          "type": "uint256",
          "internalType": "uint256"
        },
        {
          "name": "s",
          "type": "string",
          "internalType": "string"
        }
      ],
      "outputs": [
        {
          "name": "int_input",
          "type": "uint256",
          "internalType": "uint256"
        },
        {
          "name": "",
          "type": "string",
          "internalType": "string"
        }
      ],
      "stateMutability": "pure"
    },
    {
      "type": "function",
      "name": "doSomething",
      "inputs": [
        {
          "name": "simpleStructVec",
          "type": "tuple[]",
          "internalType": "struct OverloadedMethods.SimpleStruct[]",
          "components": [
            {
              "name": "strVal",
              "type": "string",
              "internalType": "string"
            },
            {
              "name": "intVal",
              "type": "uint256",
              "internalType": "uint256"
            }
          ]
        }
      ],
      "outputs": [
        {
          "name": "",
          "type": "tuple[]",
          "internalType": "struct OverloadedMethods.SimpleStruct[]",
          "components": [
            {
              "name": "strVal",
              "type": "string",
              "internalType": "string"
            },
            {
              "name": "intVal",
              "type": "uint256",
              "internalType": "uint256"
            }
          ]
        }
      ],
      "stateMutability": "pure"
    },
    {
      "type": "function",
      "name": "doSomething",
      "inputs": [
        {
          "name": "s",
          "type": "string",
          "internalType": "string"
        }
      ],
      "outputs": [
        {
          "name": "",
          "type": "string",
          "internalType": "string"
        }
      ],
      "stateMutability": "pure"
    },
    {
      "type": "function",
      "name": "doSomething",
      "inputs": [
        {
          "name": "x",
          "type": "uint256",
          "internalType": "uint256"
        }
      ],
      "outputs": [
        {
          "name": "",
          "type": "uint256",
          "internalType": "uint256"
        }
      ],
      "stateMutability": "pure"
    },
    {
      "type": "function",
      "name": "doSomething",
      "inputs": [
        {
          "name": "x",
          "type": "uint256",
          "internalType": "uint256"
        },
        {
          "name": "y",
          "type": "uint256",
          "internalType": "uint256"
        }
      ],
      "outputs": [
        {
          "name": "added",
          "type": "uint256",
          "internalType": "uint256"
        }
      ],
      "stateMutability": "pure"
    }
  ],
  "bytecode": {
    "object": "0x608060405234801561001057600080fd5b506105d9806100206000396000f3fe608060405234801561001057600080fd5b50600436106100625760003560e01c80631d37834b146100675780633b6c27c4146100ba5780634a4c53e9146100da5780638ae3048e146100f8578063a6b206bf14610113578063b2dd1d7914610134575b600080fd5b6100a4610075366004610293565b604080518082018252606081526000602091820152815180830190925282518252918201519181019190915290565b6040516100b1919061033f565b60405180910390f35b6100cc6100c8366004610352565b9091565b6040516100b1929190610399565b6100eb6100e83660046103b2565b90565b6040516100b19190610475565b6101066100e83660046104d9565b6040516100b1919061050e565b610126610121366004610521565b610147565b6040519081526020016100b1565b61012661014236600461053a565b61015a565b600061015482600261055c565b92915050565b60006101668284610581565b9392505050565b634e487b7160e01b600052604160045260246000fd5b604051601f8201601f1916810167ffffffffffffffff811182821017156101ac576101ac61016d565b604052919050565b600082601f8301126101c557600080fd5b813567ffffffffffffffff8111156101df576101df61016d565b6101f2601f8201601f1916602001610183565b81815284602083860101111561020757600080fd5b816020850160208301376000918101602001919091529392505050565b60006040828403121561023657600080fd5b6040516040810167ffffffffffffffff828210818311171561025a5761025a61016d565b81604052829350843591508082111561027257600080fd5b5061027f858286016101b4565b825250602083013560208201525092915050565b6000602082840312156102a557600080fd5b813567ffffffffffffffff8111156102bc57600080fd5b6102c884828501610224565b949350505050565b6000815180845260005b818110156102f6576020818501810151868301820152016102da565b506000602082860101526020601f19601f83011685010191505092915050565b600081516040845261032b60408501826102d0565b602093840151949093019390935250919050565b6020815260006101666020830184610316565b6000806040838503121561036557600080fd5b82359150602083013567ffffffffffffffff81111561038357600080fd5b61038f858286016101b4565b9150509250929050565b8281526040602082015260006102c860408301846102d0565b600060208083850312156103c557600080fd5b823567ffffffffffffffff808211156103dd57600080fd5b818501915085601f8301126103f157600080fd5b8135818111156104035761040361016d565b8060051b610412858201610183565b918252838101850191858101908984111561042c57600080fd5b86860192505b838310156104685782358581111561044a5760008081fd5b6104588b89838a0101610224565b8352509186019190860190610432565b9998505050505050505050565b600060208083016020845280855180835260408601915060408160051b87010192506020870160005b828110156104cc57603f198886030184526104ba858351610316565b9450928501929085019060010161049e565b5092979650505050505050565b6000602082840312156104eb57600080fd5b813567ffffffffffffffff81111561050257600080fd5b6102c8848285016101b4565b60208152600061016660208301846102d0565b60006020828403121561053357600080fd5b5035919050565b6000806040838503121561054d57600080fd5b50508035926020909101359150565b808202811582820484141761015457634e487b7160e01b600052601160045260246000fd5b60008261059e57634e487b7160e01b600052601260045260246000fd5b50049056fea26469706673582212209ff711943ea972ee791b4ebe56ee7605021e4387f1313ab6eecfee915eff13b264736f6c63430008160033",
    "linkReferences": {}
  },
  "methodIdentifiers": {
    "doSomething((string,uint256))": "1d37834b",
    "doSomething((string,uint256)[])": "4a4c53e9",
    "doSomething(string)": "8ae3048e",
    "doSomething(uint256)": "a6b206bf",
    "doSomething(uint256,string)": "3b6c27c4",
    "doSomething(uint256,uint256)": "b2dd1d79"
  },
  "id": 0
}