{
  "abi": [
    {
      "type": "function",
      "name": "doSomething",
      "inputs": [
        {
          "name": "nestedStructVec",
          "type": "tuple[]",
          "internalType": "struct OverloadedMethods.NestedStruct[]",
          "components": [
            {
              "name": "intVal",
              "type": "uint256",
              "internalType": "uint256"
            },
            {
              "name": "strVal",
              "type": "string",
              "internalType": "string"
            },
            {
              "name": "simpleStruct",
              "type": "tuple",
              "internalType": "struct OverloadedMethods.SimpleStruct",
              "components": [
                {
                  "name": "strVal",
                  "type": "string",
                  "internalType": "string"
                },
                {
                  "name": "intVal",
                  "type": "uint256",
                  "internalType": "uint256"
                }
              ]
            }
          ]
        }
      ],
      "outputs": [
        {
          "name": "outNestedStructVec",
          "type": "tuple[]",
          "internalType": "struct OverloadedMethods.NestedStruct[]",
          "components": [
            {
              "name": "intVal",
              "type": "uint256",
              "internalType": "uint256"
            },
            {
              "name": "strVal",
              "type": "string",
              "internalType": "string"
            },
            {
              "name": "simpleStruct",
              "type": "tuple",
              "internalType": "struct OverloadedMethods.SimpleStruct",
              "components": [
                {
                  "name": "strVal",
                  "type": "string",
                  "internalType": "string"
                },
                {
                  "name": "intVal",
                  "type": "uint256",
                  "internalType": "uint256"
                }
              ]
            }
          ]
        }
      ],
      "stateMutability": "pure"
    },
    {
      "type": "function",
      "name": "doSomething",
      "inputs": [
        {
          "name": "simpleStruct",
          "type": "tuple",
          "internalType": "struct OverloadedMethods.SimpleStruct",
          "components": [
            {
              "name": "strVal",
              "type": "string",
              "internalType": "string"
            },
            {
              "name": "intVal",
              "type": "uint256",
              "internalType": "uint256"
            }
          ]
        }
      ],
      "outputs": [
        {
          "name": "",
          "type": "tuple",
          "internalType": "struct OverloadedMethods.SimpleStruct",
          "components": [
            {
              "name": "strVal",
              "type": "string",
              "internalType": "string"
            },
            {
              "name": "intVal",
              "type": "uint256",
              "internalType": "uint256"
            }
          ]
        }
      ],
      "stateMutability": "pure"
    },
    {
      "type": "function",
      "name": "doSomething",
      "inputs": [
        {
          "name": "x",
          "type": "uint256",
          "internalType": "uint256"
        },
        {
          "name": "s",
          "type": "string",
          "internalType": "string"
        }
      ],
      "outputs": [
        {
          "name": "int_input",
          "type": "uint256",
          "internalType": "uint256"
        },
        {
          "name": "",
          "type": "string",
          "internalType": "string"
        }
      ],
      "stateMutability": "pure"
    },
    {
      "type": "function",
      "name": "doSomething",
      "inputs": [
        {
          "name": "simpleStructVec",
          "type": "tuple[]",
          "internalType": "struct OverloadedMethods.SimpleStruct[]",
          "components": [
            {
              "name": "strVal",
              "type": "string",
              "internalType": "string"
            },
            {
              "name": "intVal",
              "type": "uint256",
              "internalType": "uint256"
            }
          ]
        }
      ],
      "outputs": [
        {
          "name": "",
          "type": "tuple[]",
          "internalType": "struct OverloadedMethods.SimpleStruct[]",
          "components": [
            {
              "name": "strVal",
              "type": "string",
              "internalType": "string"
            },
            {
              "name": "intVal",
              "type": "uint256",
              "internalType": "uint256"
            }
          ]
        }
      ],
      "stateMutability": "pure"
    },
    {
      "type": "function",
      "name": "doSomething",
      "inputs": [],
      "outputs": [
        {
          "name": "",
          "type": "uint256",
          "internalType": "uint256"
        }
      ],
      "stateMutability": "pure"
    },
    {
      "type": "function",
      "name": "doSomething",
      "inputs": [
        {
          "name": "s",
          "type": "string",
          "internalType": "string"
        }
      ],
      "outputs": [
        {
          "name": "",
          "type": "string",
          "internalType": "string"
        }
      ],
      "stateMutability": "pure"
    },
    {
      "type": "function",
      "name": "doSomething",
      "inputs": [
        {
          "name": "x",
          "type": "uint256",
          "internalType": "uint256"
        }
      ],
      "outputs": [
        {
          "name": "",
          "type": "uint256",
          "internalType": "uint256"
        }
      ],
      "stateMutability": "pure"
    },
    {
      "type": "function",
      "name": "doSomething",
      "inputs": [
        {
          "name": "x",
          "type": "uint256",
          "internalType": "uint256"
        },
        {
          "name": "y",
          "type": "uint256",
          "internalType": "uint256"
        }
      ],
      "outputs": [
        {
          "name": "added",
          "type": "uint256",
          "internalType": "uint256"
        }
      ],
      "stateMutability": "pure"
    }
  ],
  "bytecode": {
    "object": "0x608060405234801561001057600080fd5b506107f9806100206000396000f3fe608060405234801561001057600080fd5b50600436106100885760003560e01c8063826926791161005b57806382692679146101395780638ae3048e1461014a578063a6b206bf14610165578063b2dd1d791461017857600080fd5b8063146c7dea1461008d5780631d37834b146100b45780633b6c27c4146100fe5780634a4c53e91461011e575b600080fd5b61009e61009b366004610324565b90565b6040516100ab91906104ae565b60405180910390f35b6100f16100c2366004610541565b604080518082018252606081526000602091820152815180830190925282518252918201519181019190915290565b6040516100ab919061057e565b61011061010c366004610591565b9091565b6040516100ab9291906105d8565b61012c61009b3660046105f1565b6040516100ab9190610695565b60025b6040519081526020016100ab565b61015861009b3660046106f9565b6040516100ab919061072e565b61013c610173366004610741565b61018b565b61013c61018636600461075a565b61019e565b600061019882600261077c565b92915050565b60006101aa82846107a1565b9392505050565b634e487b7160e01b600052604160045260246000fd5b6040516060810167ffffffffffffffff811182821017156101ea576101ea6101b1565b60405290565b604051601f8201601f1916810167ffffffffffffffff81118282101715610219576102196101b1565b604052919050565b600067ffffffffffffffff82111561023b5761023b6101b1565b5060051b60200190565b600082601f83011261025657600080fd5b813567ffffffffffffffff811115610270576102706101b1565b610283601f8201601f19166020016101f0565b81815284602083860101111561029857600080fd5b816020850160208301376000918101602001919091529392505050565b6000604082840312156102c757600080fd5b6040516040810167ffffffffffffffff82821081831117156102eb576102eb6101b1565b81604052829350843591508082111561030357600080fd5b5061031085828601610245565b825250602083013560208201525092915050565b6000602080838503121561033757600080fd5b823567ffffffffffffffff8082111561034f57600080fd5b818501915085601f83011261036357600080fd5b813561037661037182610221565b6101f0565b81815260059190911b8301840190848101908883111561039557600080fd5b8585015b83811015610432578035858111156103b15760008081fd5b86016060818c03601f19018113156103c95760008081fd5b6103d16101c7565b898301358152604080840135898111156103eb5760008081fd5b6103f98f8d83880101610245565b838d0152509183013591888311156104115760008081fd5b61041f8e8c858701016102b5565b9082015285525050918601918601610399565b5098975050505050505050565b6000815180845260005b8181101561046557602081850181015186830182015201610449565b506000602082860101526020601f19601f83011685010191505092915050565b600081516040845261049a604085018261043f565b602093840151949093019390935250919050565b600060208083018184528085518083526040925060408601915060408160051b87010184880160005b8381101561053357603f19898403018552815160608151855288820151818a8701526105058287018261043f565b9150508782015191508481038886015261051f8183610485565b9689019694505050908601906001016104d7565b509098975050505050505050565b60006020828403121561055357600080fd5b813567ffffffffffffffff81111561056a57600080fd5b610576848285016102b5565b949350505050565b6020815260006101aa6020830184610485565b600080604083850312156105a457600080fd5b82359150602083013567ffffffffffffffff8111156105c257600080fd5b6105ce85828601610245565b9150509250929050565b828152604060208201526000610576604083018461043f565b6000602080838503121561060457600080fd5b823567ffffffffffffffff8082111561061c57600080fd5b818501915085601f83011261063057600080fd5b813561063e61037182610221565b81815260059190911b8301840190848101908883111561065d57600080fd5b8585015b83811015610432578035858111156106795760008081fd5b6106878b89838a01016102b5565b845250918601918601610661565b600060208083016020845280855180835260408601915060408160051b87010192506020870160005b828110156106ec57603f198886030184526106da858351610485565b945092850192908501906001016106be565b5092979650505050505050565b60006020828403121561070b57600080fd5b813567ffffffffffffffff81111561072257600080fd5b61057684828501610245565b6020815260006101aa602083018461043f565b60006020828403121561075357600080fd5b5035919050565b6000806040838503121561076d57600080fd5b50508035926020909101359150565b808202811582820484141761019857634e487b7160e01b600052601160045260246000fd5b6000826107be57634e487b7160e01b600052601260045260246000fd5b50049056fea2646970667358221220bda866931d31d56519d7f24e2a69ea362471a83fcb4bd41e5fc750dac61ea0fb64736f6c63430008160033",
    "linkReferences": {}
  },
  "methodIdentifiers": {
    "doSomething((string,uint256))": "1d37834b",
    "doSomething((string,uint256)[])": "4a4c53e9",
    "doSomething((uint256,string,(string,uint256))[])": "146c7dea",
    "doSomething()": "82692679",
    "doSomething(string)": "8ae3048e",
    "doSomething(uint256)": "a6b206bf",
    "doSomething(uint256,string)": "3b6c27c4",
    "doSomething(uint256,uint256)": "b2dd1d79"
  },
  "id": 0
}