{
  "abi": [
    {
      "type": "function",
      "name": "doSomething",
      "inputs": [
        {
          "name": "x",
          "type": "uint256",
          "internalType": "uint256"
        },
        {
          "name": "s",
          "type": "string",
          "internalType": "string"
        }
      ],
      "outputs": [
        {
          "name": "int_input",
          "type": "uint256",
          "internalType": "uint256"
        },
        {
          "name": "",
          "type": "string",
          "internalType": "string"
        }
      ],
      "stateMutability": "pure"
    },
    {
      "type": "function",
      "name": "doSomething",
      "inputs": [
        {
          "name": "s",
          "type": "string",
          "internalType": "string"
        }
      ],
      "outputs": [
        {
          "name": "",
          "type": "string",
          "internalType": "string"
        }
      ],
      "stateMutability": "pure"
    },
    {
      "type": "function",
      "name": "doSomething",
      "inputs": [
        {
          "name": "x",
          "type": "uint256",
          "internalType": "uint256"
        }
      ],
      "outputs": [
        {
          "name": "",
          "type": "uint256",
          "internalType": "uint256"
        }
      ],
      "stateMutability": "pure"
    },
    {
      "type": "function",
      "name": "doSomething",
      "inputs": [
        {
          "name": "x",
          "type": "uint256",
          "internalType": "uint256"
        },
        {
          "name": "y",
          "type": "uint256",
          "internalType": "uint256"
        }
      ],
      "outputs": [
        {
          "name": "added",
          "type": "uint256",
          "internalType": "uint256"
        }
      ],
      "stateMutability": "pure"
    }
  ],
  "bytecode": {
    "object": "0x608060405234801561001057600080fd5b5061033c806100206000396000f3fe608060405234801561001057600080fd5b506004361061004c5760003560e01c80633b6c27c4146100515780638ae3048e1461007a578063a6b206bf14610098578063b2dd1d79146100b9575b600080fd5b61006361005f366004610195565b9091565b604051610071929190610222565b60405180910390f35b61008b610088366004610243565b90565b6040516100719190610278565b6100ab6100a636600461028b565b6100cc565b604051908152602001610071565b6100ab6100c73660046102a4565b6100df565b60006100d98260026102dc565b92915050565b60006100eb82846102f3565b9392505050565b634e487b7160e01b600052604160045260246000fd5b600082601f83011261011957600080fd5b813567ffffffffffffffff80821115610134576101346100f2565b604051601f8301601f19908116603f0116810190828211818310171561015c5761015c6100f2565b8160405283815286602085880101111561017557600080fd5b836020870160208301376000602085830101528094505050505092915050565b600080604083850312156101a857600080fd5b82359150602083013567ffffffffffffffff8111156101c657600080fd5b6101d285828601610108565b9150509250929050565b6000815180845260005b81811015610202576020818501810151868301820152016101e6565b506000602082860101526020601f19601f83011685010191505092915050565b82815260406020820152600061023b60408301846101dc565b949350505050565b60006020828403121561025557600080fd5b813567ffffffffffffffff81111561026c57600080fd5b61023b84828501610108565b6020815260006100eb60208301846101dc565b60006020828403121561029d57600080fd5b5035919050565b600080604083850312156102b757600080fd5b50508035926020909101359150565b634e487b7160e01b600052601160045260246000fd5b80820281158282048414176100d9576100d96102c6565b808201808211156100d9576100d96102c656fea2646970667358221220b2ac531af898c14ca1c2bf29695116e40807da6cfffc0292534640d2d6903f4664736f6c63430008160033",
    "linkReferences": {}
  },
  "methodIdentifiers": {
    "doSomething(string)": "8ae3048e",
    "doSomething(uint256)": "a6b206bf",
    "doSomething(uint256,string)": "3b6c27c4",
    "doSomething(uint256,uint256)": "b2dd1d79"
  },
  "id": 0
}