{
  "abi": [
    {
      "type": "function",
      "name": "doSomething",
      "inputs": [
        {
          "name": "nestedStructVec",
          "type": "tuple[]",
          "internalType": "struct OverloadedMethods.NestedStruct[]",
          "components": [
            {
              "name": "intVal",
              "type": "uint256",
              "internalType": "uint256"
            },
            {
              "name": "strVal",
              "type": "string",
              "internalType": "string"
            },
            {
              "name": "simpleStruct",
              "type": "tuple",
              "internalType": "struct OverloadedMethods.SimpleStruct",
              "components": [
                {
                  "name": "_strVal",
                  "type": "string",
                  "internalType": "string"
                },
                {
                  "name": "_intVal",
                  "type": "uint256",
                  "internalType": "uint256"
                }
              ]
            }
          ]
        }
      ],
      "outputs": [
        {
          "name": "outNestedStructVec",
          "type": "tuple[]",
          "internalType": "struct OverloadedMethods.NestedStruct[]",
          "components": [
            {
              "name": "intVal",
              "type": "uint256",
              "internalType": "uint256"
            },
            {
              "name": "strVal",
              "type": "string",
              "internalType": "string"
            },
            {
              "name": "simpleStruct",
              "type": "tuple",
              "internalType": "struct OverloadedMethods.SimpleStruct",
              "components": [
                {
                  "name": "_strVal",
                  "type": "string",
                  "internalType": "string"
                },
                {
                  "name": "_intVal",
                  "type": "uint256",
                  "internalType": "uint256"
                }
              ]
            }
          ]
        }
      ],
      "stateMutability": "pure"
    },
    {
      "type": "function",
      "name": "doSomething",
      "inputs": [
        {
          "name": "_simpleStruct",
          "type": "tuple",
          "internalType": "struct OverloadedMethods.SimpleStruct",
          "components": [
            {
              "name": "_strVal",
              "type": "string",
              "internalType": "string"
            },
            {
              "name": "_intVal",
              "type": "uint256",
              "internalType": "uint256"
            }
          ]
        }
      ],
      "outputs": [
        {
          "name": "",
          "type": "tuple",
          "internalType": "struct OverloadedMethods.SimpleStruct",
          "components": [
            {
              "name": "_strVal",
              "type": "string",
              "internalType": "string"
            },
            {
              "name": "_intVal",
              "type": "uint256",
              "internalType": "uint256"
            }
          ]
        }
      ],
      "stateMutability": "pure"
    },
    {
      "type": "function",
      "name": "doSomething",
      "inputs": [
        {
          "name": "_x",
          "type": "uint256",
          "internalType": "uint256"
        },
        {
          "name": "_s",
          "type": "string",
          "internalType": "string"
        }
      ],
      "outputs": [
        {
          "name": "int_input",
          "type": "uint256",
          "internalType": "uint256"
        },
        {
          "name": "",
          "type": "string",
          "internalType": "string"
        }
      ],
      "stateMutability": "pure"
    },
    {
      "type": "function",
      "name": "doSomething",
      "inputs": [
        {
          "name": "simpleStructVec",
          "type": "tuple[]",
          "internalType": "struct OverloadedMethods.SimpleStruct[]",
          "components": [
            {
              "name": "_strVal",
              "type": "string",
              "internalType": "string"
            },
            {
              "name": "_intVal",
              "type": "uint256",
              "internalType": "uint256"
            }
          ]
        }
      ],
      "outputs": [
        {
          "name": "",
          "type": "tuple[]",
          "internalType": "struct OverloadedMethods.SimpleStruct[]",
          "components": [
            {
              "name": "_strVal",
              "type": "string",
              "internalType": "string"
            },
            {
              "name": "_intVal",
              "type": "uint256",
              "internalType": "uint256"
            }
          ]
        }
      ],
      "stateMutability": "pure"
    },
    {
      "type": "function",
      "name": "doSomething",
      "inputs": [],
      "outputs": [
        {
          "name": "",
          "type": "address",
          "internalType": "address"
        }
      ],
      "stateMutability": "view"
    },
    {
      "type": "function",
      "name": "doSomething",
      "inputs": [
        {
          "name": "_s",
          "type": "string",
          "internalType": "string"
        }
      ],
      "outputs": [
        {
          "name": "",
          "type": "string",
          "internalType": "string"
        }
      ],
      "stateMutability": "pure"
    },
    {
      "type": "function",
      "name": "doSomething",
      "inputs": [
        {
          "name": "_x",
          "type": "uint256",
          "internalType": "uint256"
        }
      ],
      "outputs": [
        {
          "name": "",
          "type": "uint256",
          "internalType": "uint256"
        }
      ],
      "stateMutability": "pure"
    },
    {
      "type": "function",
      "name": "doSomething",
      "inputs": [
        {
          "name": "_x",
          "type": "uint256",
          "internalType": "uint256"
        },
        {
          "name": "_y",
          "type": "uint256",
          "internalType": "uint256"
        }
      ],
      "outputs": [
        {
          "name": "added",
          "type": "uint256",
          "internalType": "uint256"
        }
      ],
      "stateMutability": "pure"
    },
    {
      "type": "function",
      "name": "doSomething",
      "inputs": [
        {
          "name": "_x",
          "type": "string",
          "internalType": "string"
        },
        {
          "name": "_s",
          "type": "uint256",
          "internalType": "uint256"
        }
      ],
      "outputs": [
        {
          "name": "",
          "type": "string",
          "internalType": "string"
        },
        {
          "name": "int_input",
          "type": "uint256",
          "internalType": "uint256"
        }
      ],
      "stateMutability": "pure"
    }
  ],
  "bytecode": {
    "object": "0x608060405234801561001057600080fd5b50610892806100206000396000f3fe608060405234801561001057600080fd5b50600436106100935760003560e01c8063826926791161006657806382692679146101445780638ae3048e14610152578063a6b206bf1461016d578063b2dd1d791461018e578063d5731daf146101a157600080fd5b8063146c7dea146100985780631d37834b146100bf5780633b6c27c4146101095780634a4c53e914610129575b600080fd5b6100a96100a6366004610356565b90565b6040516100b691906104e0565b60405180910390f35b6100fc6100cd366004610573565b604080518082018252606081526000602091820152815180830190925282518252918201519181019190915290565b6040516100b691906105b0565b61011b6101173660046105c3565b9091565b6040516100b692919061060a565b6101376100a6366004610623565b6040516100b691906106c7565b6040513081526020016100b6565b6101606100a636600461072b565b6040516100b69190610760565b61018061017b366004610773565b6101bd565b6040519081526020016100b6565b61018061019c36600461078c565b6101d0565b6101af6101173660046107ae565b6040516100b69291906107f3565b60006101ca826002610815565b92915050565b60006101dc828461083a565b9392505050565b634e487b7160e01b600052604160045260246000fd5b6040516060810167ffffffffffffffff8111828210171561021c5761021c6101e3565b60405290565b604051601f8201601f1916810167ffffffffffffffff8111828210171561024b5761024b6101e3565b604052919050565b600067ffffffffffffffff82111561026d5761026d6101e3565b5060051b60200190565b600082601f83011261028857600080fd5b813567ffffffffffffffff8111156102a2576102a26101e3565b6102b5601f8201601f1916602001610222565b8181528460208386010111156102ca57600080fd5b816020850160208301376000918101602001919091529392505050565b6000604082840312156102f957600080fd5b6040516040810167ffffffffffffffff828210818311171561031d5761031d6101e3565b81604052829350843591508082111561033557600080fd5b5061034285828601610277565b825250602083013560208201525092915050565b6000602080838503121561036957600080fd5b823567ffffffffffffffff8082111561038157600080fd5b818501915085601f83011261039557600080fd5b81356103a86103a382610253565b610222565b81815260059190911b830184019084810190888311156103c757600080fd5b8585015b83811015610464578035858111156103e35760008081fd5b86016060818c03601f19018113156103fb5760008081fd5b6104036101f9565b8983013581526040808401358981111561041d5760008081fd5b61042b8f8d83880101610277565b838d0152509183013591888311156104435760008081fd5b6104518e8c858701016102e7565b90820152855250509186019186016103cb565b5098975050505050505050565b6000815180845260005b818110156104975760208185018101518683018201520161047b565b506000602082860101526020601f19601f83011685010191505092915050565b60008151604084526104cc6040850182610471565b602093840151949093019390935250919050565b600060208083018184528085518083526040925060408601915060408160051b87010184880160005b8381101561056557603f19898403018552815160608151855288820151818a87015261053782870182610471565b9150508782015191508481038886015261055181836104b7565b968901969450505090860190600101610509565b509098975050505050505050565b60006020828403121561058557600080fd5b813567ffffffffffffffff81111561059c57600080fd5b6105a8848285016102e7565b949350505050565b6020815260006101dc60208301846104b7565b600080604083850312156105d657600080fd5b82359150602083013567ffffffffffffffff8111156105f457600080fd5b61060085828601610277565b9150509250929050565b8281526040602082015260006105a86040830184610471565b6000602080838503121561063657600080fd5b823567ffffffffffffffff8082111561064e57600080fd5b818501915085601f83011261066257600080fd5b81356106706103a382610253565b81815260059190911b8301840190848101908883111561068f57600080fd5b8585015b83811015610464578035858111156106ab5760008081fd5b6106b98b89838a01016102e7565b845250918601918601610693565b600060208083016020845280855180835260408601915060408160051b87010192506020870160005b8281101561071e57603f1988860301845261070c8583516104b7565b945092850192908501906001016106f0565b5092979650505050505050565b60006020828403121561073d57600080fd5b813567ffffffffffffffff81111561075457600080fd5b6105a884828501610277565b6020815260006101dc6020830184610471565b60006020828403121561078557600080fd5b5035919050565b6000806040838503121561079f57600080fd5b50508035926020909101359150565b600080604083850312156107c157600080fd5b823567ffffffffffffffff8111156107d857600080fd5b6107e485828601610277565b95602094909401359450505050565b6040815260006108066040830185610471565b90508260208301529392505050565b80820281158282048414176101ca57634e487b7160e01b600052601160045260246000fd5b60008261085757634e487b7160e01b600052601260045260246000fd5b50049056fea26469706673582212206d8d68858b74e9fe8afb6258aa3a7858e3e20bdd8af6e38adedc9813bbe2772464736f6c63430008180033",
    "linkReferences": {}
  },
  "methodIdentifiers": {
    "doSomething((string,uint256))": "1d37834b",
    "doSomething((string,uint256)[])": "4a4c53e9",
    "doSomething((uint256,string,(string,uint256))[])": "146c7dea",
    "doSomething()": "82692679",
    "doSomething(string)": "8ae3048e",
    "doSomething(string,uint256)": "d5731daf",
    "doSomething(uint256)": "a6b206bf",
    "doSomething(uint256,string)": "3b6c27c4",
    "doSomething(uint256,uint256)": "b2dd1d79"
  },
  "id": 0
}