{
  "abi": [
    {
      "type": "function",
      "name": "doSomething",
      "inputs": [
        {
          "name": "simpleStruct",
          "type": "tuple",
          "internalType": "struct OverloadedMethods.SimpleStruct",
          "components": [
            {
              "name": "strVal",
              "type": "string",
              "internalType": "string"
            },
            {
              "name": "intVal",
              "type": "uint256",
              "internalType": "uint256"
            }
          ]
        }
      ],
      "outputs": [
        {
          "name": "",
          "type": "tuple",
          "internalType": "struct OverloadedMethods.SimpleStruct",
          "components": [
            {
              "name": "strVal",
              "type": "string",
              "internalType": "string"
            },
            {
              "name": "intVal",
              "type": "uint256",
              "internalType": "uint256"
            }
          ]
        }
      ],
      "stateMutability": "pure"
    },
    {
      "type": "function",
      "name": "doSomething",
      "inputs": [
        {
          "name": "x",
          "type": "uint256",
          "internalType": "uint256"
        },
        {
          "name": "s",
          "type": "string",
          "internalType": "string"
        }
      ],
      "outputs": [
        {
          "name": "int_input",
          "type": "uint256",
          "internalType": "uint256"
        },
        {
          "name": "",
          "type": "string",
          "internalType": "string"
        }
      ],
      "stateMutability": "pure"
    },
    {
      "type": "function",
      "name": "doSomething",
      "inputs": [
        {
          "name": "s",
          "type": "string",
          "internalType": "string"
        }
      ],
      "outputs": [
        {
          "name": "",
          "type": "string",
          "internalType": "string"
        }
      ],
      "stateMutability": "pure"
    },
    {
      "type": "function",
      "name": "doSomething",
      "inputs": [
        {
          "name": "x",
          "type": "uint256",
          "internalType": "uint256"
        }
      ],
      "outputs": [
        {
          "name": "",
          "type": "uint256",
          "internalType": "uint256"
        }
      ],
      "stateMutability": "pure"
    },
    {
      "type": "function",
      "name": "doSomething",
      "inputs": [
        {
          "name": "x",
          "type": "uint256",
          "internalType": "uint256"
        },
        {
          "name": "y",
          "type": "uint256",
          "internalType": "uint256"
        }
      ],
      "outputs": [
        {
          "name": "added",
          "type": "uint256",
          "internalType": "uint256"
        }
      ],
      "stateMutability": "pure"
    }
  ],
  "bytecode": {
    "object": "0x608060405234801561001057600080fd5b50610495806100206000396000f3fe608060405234801561001057600080fd5b50600436106100575760003560e01c80631d37834b1461005c5780633b6c27c4146100855780638ae3048e146100a6578063a6b206bf146100c4578063b2dd1d79146100e5575b600080fd5b61006f61006a366004610197565b6100f8565b60405161007c9190610218565b60405180910390f35b6100986100933660046102ed565b610167565b60405161007c929190610334565b6100b76100b4366004610355565b90565b60405161007c919061038a565b6100d76100d236600461039d565b610171565b60405190815260200161007c565b6100d76100f33660046103b6565b610184565b60408051808201825260608152600060208201528151808301909252908061012084806103d8565b8080601f0160208091040260200160405190810160405280939291908181526020018383808284376000920191909152505050908252506020938401359301929092525090565b81815b9250929050565b600061017e826002610435565b92915050565b6000610190828461044c565b9392505050565b6000602082840312156101a957600080fd5b813567ffffffffffffffff8111156101c057600080fd5b82016040818503121561019057600080fd5b6000815180845260005b818110156101f8576020818501810151868301820152016101dc565b506000602082860101526020601f19601f83011685010191505092915050565b60208152600082516040602084015261023460608401826101d2565b9050602084015160408401528091505092915050565b634e487b7160e01b600052604160045260246000fd5b600082601f83011261027157600080fd5b813567ffffffffffffffff8082111561028c5761028c61024a565b604051601f8301601f19908116603f011681019082821181831017156102b4576102b461024a565b816040528381528660208588010111156102cd57600080fd5b836020870160208301376000602085830101528094505050505092915050565b6000806040838503121561030057600080fd5b82359150602083013567ffffffffffffffff81111561031e57600080fd5b61032a85828601610260565b9150509250929050565b82815260406020820152600061034d60408301846101d2565b949350505050565b60006020828403121561036757600080fd5b813567ffffffffffffffff81111561037e57600080fd5b61034d84828501610260565b60208152600061019060208301846101d2565b6000602082840312156103af57600080fd5b5035919050565b600080604083850312156103c957600080fd5b50508035926020909101359150565b6000808335601e198436030181126103ef57600080fd5b83018035915067ffffffffffffffff82111561040a57600080fd5b60200191503681900382131561016a57600080fd5b634e487b7160e01b600052601160045260246000fd5b808202811582820484141761017e5761017e61041f565b8082018082111561017e5761017e61041f56fea264697066735822122092bce181069716b22a1afb312be5b76455d05c70d58ba1e10c9979edaad214c464736f6c63430008160033",
    "linkReferences": {}
  },
  "methodIdentifiers": {
    "doSomething((string,uint256))": "1d37834b",
    "doSomething(string)": "8ae3048e",
    "doSomething(uint256)": "a6b206bf",
    "doSomething(uint256,string)": "3b6c27c4",
    "doSomething(uint256,uint256)": "b2dd1d79"
  },
  "id": 0
}