{
  "abi": [
    {
      "inputs": [],
      "name": "singleNestedStruct",
      "outputs": [
        {
          "components": [
            {
              "internalType": "uint256",
              "name": "intVal",
              "type": "uint256"
            },
            {
              "internalType": "string",
              "name": "strVal",
              "type": "string"
            },
            {
              "components": [
                {
                  "internalType": "bool",
                  "name": "boolVal",
                  "type": "bool"
                }
              ],
              "internalType": "struct IStructs.InnerStruct",
              "name": "innerStruct",
              "type": "tuple"
            }
          ],
          "internalType": "struct IStructs.NestedStruct",
          "name": "",
          "type": "tuple"
        }
      ],
      "stateMutability": "pure",
      "type": "function"
    },
    {
      "inputs": [],
      "name": "singleSimpleStruct",
      "outputs": [
        {
          "components": [
            {
              "internalType": "uint256",
              "name": "intVal",
              "type": "uint256"
            },
            {
              "internalType": "string",
              "name": "strVal",
              "type": "string"
            }
          ],
          "internalType": "struct IStructs.SimpleStruct",
          "name": "",
          "type": "tuple"
        }
      ],
      "stateMutability": "pure",
      "type": "function"
    },
    {
      "inputs": [],
      "name": "structA",
      "outputs": [
        {
          "components": [
            {
              "internalType": "uint256",
              "name": "intVal",
              "type": "uint256"
            },
            {
              "internalType": "string",
              "name": "strVal",
              "type": "string"
            }
          ],
          "internalType": "struct StructsA.AStruct",
          "name": "",
          "type": "tuple"
        }
      ],
      "stateMutability": "pure",
      "type": "function"
    }
  ],
  "bytecode": {
    "object": "0x608060405234801561001057600080fd5b5061024e806100206000396000f3fe608060405234801561001057600080fd5b50600436106100415760003560e01c806311ba731f146100465780636456bc7914610046578063c567c2f3146100a5575b600080fd5b604080518082018252600081526060602091820152815180830183526001815282518084018452601081526f596f7520617265206e756d626572203160801b8184015291810191909152905161009c91906101bf565b60405180910390f35b6100ad6100ba565b60405161009c91906101d9565b6100c261011c565b6040518060600160405280600181526020016040518060400160405280601081526020016f596f7520617265206e756d626572203160801b8152508152602001604051806020016040528060011515815250815250905090565b6040518060600160405280600081526020016060815260200161014d60405180602001604052806000151581525090565b905290565b6000815180845260005b818110156101785760208185018101518683018201520161015c565b506000602082860101526020601f19601f83011685010191505092915050565b8051825260006020820151604060208501526101b76040850182610152565b949350505050565b6020815260006101d26020830184610198565b9392505050565b602081528151602082015260006020830151606060408401526101ff6080840182610152565b905060408401515115156060840152809150509291505056fea2646970667358221220bbfce7f992a11416e0c39bc0daa1950a6d041ef725a2bfc5047d7f20b881d68364736f6c63430008130033",
    "linkReferences": {}
  },
  "methodIdentifiers": {
    "singleNestedStruct()": "c567c2f3",
    "singleSimpleStruct()": "6456bc79",
    "structA()": "11ba731f"
  },
  "id": 1
}