{
  "abi": [
    {
      "type": "constructor",
      "inputs": [
        {
          "name": "name",
          "type": "string",
          "internalType": "string"
        }
      ],
      "stateMutability": "nonpayable"
    },
    {
      "type": "function",
      "name": "flipFlop",
      "inputs": [
        {
          "name": "flip",
          "type": "uint256",
          "internalType": "uint256"
        },
        {
          "name": "flop",
          "type": "uint256",
          "internalType": "uint256"
        }
      ],
      "outputs": [
        {
          "name": "_flop",
          "type": "uint256",
          "internalType": "uint256"
        },
        {
          "name": "_flip",
          "type": "uint256",
          "internalType": "uint256"
        }
      ],
      "stateMutability": "nonpayable"
    },
    {
      "type": "function",
      "name": "guessALetter",
      "inputs": [
        {
          "name": "guess",
          "type": "uint8",
          "internalType": "enum Example.Letters"
        }
      ],
      "outputs": [],
      "stateMutability": "pure"
    },
    {
      "type": "function",
      "name": "mixStructsAndPrimitives",
      "inputs": [],
      "outputs": [
        {
          "name": "simpleStruct",
          "type": "tuple",
          "internalType": "struct Example.SimpleStruct",
          "components": [
            {
              "name": "intVal",
              "type": "uint256",
              "internalType": "uint256"
            },
            {
              "name": "strVal",
              "type": "string",
              "internalType": "string"
            }
          ]
        },
        {
          "name": "",
          "type": "tuple",
          "internalType": "struct Example.NestedStruct",
          "components": [
            {
              "name": "intVal",
              "type": "uint256",
              "internalType": "uint256"
            },
            {
              "name": "strVal",
              "type": "string",
              "internalType": "string"
            },
            {
              "name": "innerStruct",
              "type": "tuple",
              "internalType": "struct Example.InnerStruct",
              "components": [
                {
                  "name": "boolVal",
                  "type": "bool",
                  "internalType": "bool"
                }
              ]
            }
          ]
        },
        {
          "name": "",
          "type": "uint256",
          "internalType": "uint256"
        },
        {
          "name": "_name",
          "type": "string",
          "internalType": "string"
        },
        {
          "name": "YesOrNo",
          "type": "bool",
          "internalType": "bool"
        }
      ],
      "stateMutability": "pure"
    },
    {
      "type": "function",
      "name": "namedSingleStruct",
      "inputs": [],
      "outputs": [
        {
          "name": "struct1",
          "type": "tuple",
          "internalType": "struct Example.SimpleStruct",
          "components": [
            {
              "name": "intVal",
              "type": "uint256",
              "internalType": "uint256"
            },
            {
              "name": "strVal",
              "type": "string",
              "internalType": "string"
            }
          ]
        }
      ],
      "stateMutability": "pure"
    },
    {
      "type": "function",
      "name": "namedTwoMixedStructs",
      "inputs": [],
      "outputs": [
        {
          "name": "simpleStruct",
          "type": "tuple",
          "internalType": "struct Example.SimpleStruct",
          "components": [
            {
              "name": "intVal",
              "type": "uint256",
              "internalType": "uint256"
            },
            {
              "name": "strVal",
              "type": "string",
              "internalType": "string"
            }
          ]
        },
        {
          "name": "nestedStruct",
          "type": "tuple",
          "internalType": "struct Example.NestedStruct",
          "components": [
            {
              "name": "intVal",
              "type": "uint256",
              "internalType": "uint256"
            },
            {
              "name": "strVal",
              "type": "string",
              "internalType": "string"
            },
            {
              "name": "innerStruct",
              "type": "tuple",
              "internalType": "struct Example.InnerStruct",
              "components": [
                {
                  "name": "boolVal",
                  "type": "bool",
                  "internalType": "bool"
                }
              ]
            }
          ]
        }
      ],
      "stateMutability": "pure"
    },
    {
      "type": "function",
      "name": "singleNestedStruct",
      "inputs": [
        {
          "name": "nestedStruct",
          "type": "tuple",
          "internalType": "struct Example.NestedStruct",
          "components": [
            {
              "name": "intVal",
              "type": "uint256",
              "internalType": "uint256"
            },
            {
              "name": "strVal",
              "type": "string",
              "internalType": "string"
            },
            {
              "name": "innerStruct",
              "type": "tuple",
              "internalType": "struct Example.InnerStruct",
              "components": [
                {
                  "name": "boolVal",
                  "type": "bool",
                  "internalType": "bool"
                }
              ]
            }
          ]
        }
      ],
      "outputs": [
        {
          "name": "",
          "type": "tuple",
          "internalType": "struct Example.NestedStruct",
          "components": [
            {
              "name": "intVal",
              "type": "uint256",
              "internalType": "uint256"
            },
            {
              "name": "strVal",
              "type": "string",
              "internalType": "string"
            },
            {
              "name": "innerStruct",
              "type": "tuple",
              "internalType": "struct Example.InnerStruct",
              "components": [
                {
                  "name": "boolVal",
                  "type": "bool",
                  "internalType": "bool"
                }
              ]
            }
          ]
        }
      ],
      "stateMutability": "pure"
    },
    {
      "type": "function",
      "name": "singleSimpleStruct",
      "inputs": [
        {
          "name": "simpleStruct",
          "type": "tuple",
          "internalType": "struct Example.SimpleStruct",
          "components": [
            {
              "name": "intVal",
              "type": "uint256",
              "internalType": "uint256"
            },
            {
              "name": "strVal",
              "type": "string",
              "internalType": "string"
            }
          ]
        }
      ],
      "outputs": [
        {
          "name": "",
          "type": "tuple",
          "internalType": "struct Example.SimpleStruct",
          "components": [
            {
              "name": "intVal",
              "type": "uint256",
              "internalType": "uint256"
            },
            {
              "name": "strVal",
              "type": "string",
              "internalType": "string"
            }
          ]
        }
      ],
      "stateMutability": "pure"
    },
    {
      "type": "function",
      "name": "twoMixedStructs",
      "inputs": [],
      "outputs": [
        {
          "name": "",
          "type": "tuple",
          "internalType": "struct Example.SimpleStruct",
          "components": [
            {
              "name": "intVal",
              "type": "uint256",
              "internalType": "uint256"
            },
            {
              "name": "strVal",
              "type": "string",
              "internalType": "string"
            }
          ]
        },
        {
          "name": "",
          "type": "tuple",
          "internalType": "struct Example.NestedStruct",
          "components": [
            {
              "name": "intVal",
              "type": "uint256",
              "internalType": "uint256"
            },
            {
              "name": "strVal",
              "type": "string",
              "internalType": "string"
            },
            {
              "name": "innerStruct",
              "type": "tuple",
              "internalType": "struct Example.InnerStruct",
              "components": [
                {
                  "name": "boolVal",
                  "type": "bool",
                  "internalType": "bool"
                }
              ]
            }
          ]
        }
      ],
      "stateMutability": "pure"
    },
    {
      "type": "function",
      "name": "twoSimpleStructs",
      "inputs": [],
      "outputs": [
        {
          "name": "",
          "type": "tuple",
          "internalType": "struct Example.SimpleStruct",
          "components": [
            {
              "name": "intVal",
              "type": "uint256",
              "internalType": "uint256"
            },
            {
              "name": "strVal",
              "type": "string",
              "internalType": "string"
            }
          ]
        },
        {
          "name": "",
          "type": "tuple",
          "internalType": "struct Example.SimpleStruct",
          "components": [
            {
              "name": "intVal",
              "type": "uint256",
              "internalType": "uint256"
            },
            {
              "name": "strVal",
              "type": "string",
              "internalType": "string"
            }
          ]
        }
      ],
      "stateMutability": "pure"
    },
    {
      "type": "function",
      "name": "vecOfStruct",
      "inputs": [
        {
          "name": "inVecSimpleStruct",
          "type": "tuple[]",
          "internalType": "struct Example.SimpleStruct[]",
          "components": [
            {
              "name": "intVal",
              "type": "uint256",
              "internalType": "uint256"
            },
            {
              "name": "strVal",
              "type": "string",
              "internalType": "string"
            }
          ]
        }
      ],
      "outputs": [
        {
          "name": "vecSimpleStruct",
          "type": "tuple[]",
          "internalType": "struct Example.SimpleStruct[]",
          "components": [
            {
              "name": "intVal",
              "type": "uint256",
              "internalType": "uint256"
            },
            {
              "name": "strVal",
              "type": "string",
              "internalType": "string"
            }
          ]
        }
      ],
      "stateMutability": "pure"
    },
    {
      "type": "event",
      "name": "Flip",
      "inputs": [
        {
          "name": "flip",
          "type": "uint256",
          "indexed": false,
          "internalType": "uint256"
        }
      ],
      "anonymous": false
    },
    {
      "type": "event",
      "name": "Flop",
      "inputs": [
        {
          "name": "flop",
          "type": "uint256",
          "indexed": false,
          "internalType": "uint256"
        }
      ],
      "anonymous": false
    },
    {
      "type": "error",
      "name": "WrongChoice",
      "inputs": [
        {
          "name": "answer",
          "type": "uint8",
          "internalType": "enum Example.Letters"
        },
        {
          "name": "errorMessage",
          "type": "string",
          "internalType": "string"
        }
      ]
    }
  ],
  "bytecode": {
    "object": "0x60806040523480156200001157600080fd5b5060405162000ef738038062000ef7833981016040819052620000349162000060565b6000620000428282620001c6565b505062000292565b634e487b7160e01b600052604160045260246000fd5b600060208083850312156200007457600080fd5b82516001600160401b03808211156200008c57600080fd5b818501915085601f830112620000a157600080fd5b815181811115620000b657620000b66200004a565b604051601f8201601f19908116603f01168101908382118183101715620000e157620000e16200004a565b816040528281528886848701011115620000fa57600080fd5b600093505b828410156200011e5784840186015181850187015292850192620000ff565b600086848301015280965050505050505092915050565b600181811c908216806200014a57607f821691505b6020821081036200016b57634e487b7160e01b600052602260045260246000fd5b50919050565b601f821115620001c1576000816000526020600020601f850160051c810160208610156200019c5750805b601f850160051c820191505b81811015620001bd57828155600101620001a8565b5050505b505050565b81516001600160401b03811115620001e257620001e26200004a565b620001fa81620001f3845462000135565b8462000171565b602080601f831160018114620002325760008415620002195750858301515b600019600386901b1c1916600185901b178555620001bd565b600085815260208120601f198616915b82811015620002635788860151825594840194600190910190840162000242565b5085821015620002825787850151600019600388901b60f8161c191681555b5050505050600190811b01905550565b610c5580620002a26000396000f3fe608060405234801561001057600080fd5b506004361061009e5760003560e01c806386a5a4c31161006657806386a5a4c3146101e3578063c8e3a3df146101f6578063cf71512c14610214578063d33264461461023c578063e0f7c6041461025c57600080fd5b806326da1c9e146100a357806340e27b10146100b857806353fd10431461015b57806373b10c0f14610171578063811d9aa31461018a575b600080fd5b6100b66100b13660046105de565b610264565b005b604080518082018252600080825260606020928301819052835180850185529182529082015281518083018352600181528251808401845260108082526f596f7520617265206e756d626572203160801b82850152828401919091528351808501855260028152845180860186529182526f2cb7ba9030b93290373ab6b132b9101960811b82850152928301529151610152929190610673565b60405180910390f35b6101636102ca565b6040516101529291906106d7565b610179610370565b6040516101529594939291906106fc565b60408051808201825260008152606060209182015281518083018352600181528251808401909352601083526f596f7520617265206e756d626572203160801b83830152908101919091525b6040516101529190610750565b6101d66101f1366004610763565b610445565b6102076102043660046108ed565b90565b60405161015291906109b0565b610227610222366004610a14565b610469565b60408051928352602083019190915201610152565b61024f61024a366004610a36565b6104df565b6040516101529190610a71565b6101636104f0565b60006003600183600281111561027c5761027c610a84565b6102869190610a9a565b6102909190610ac1565b60ff1660028111156102a4576102a4610a84565b90508060405163304ecc3560e21b81526004016102c19190610af1565b60405180910390fd5b6040805180820190915260008152606060208201526102e76105a8565b505060408051808201825260018082528251808401845260108082526f596f7520617265206e756d626572203160801b60208381019190915280850192909252845160608101865260028152855180870187529182526f2cb7ba9030b93290373ab6b132b9101960811b8284015280830191909152845191820185529181529281019290925291565b60408051808201909152600081526060602082015261038d6105a8565b505060408051808201825260018082528251808401845260108082526f596f7520617265206e756d626572203160801b60208381019190915280850192909252845160608101865260028152855180870187529182526f2cb7ba9030b93290373ab6b132b9101960811b828401528083019190915284518083018652838152818601528451808601909552601385527214995d1d5c9b951e5c195cd0dbdb9d1c9858dd606a1b91850191909152919260009091929394565b60408051808201909152600081526060602082015261046382610b6e565b92915050565b6000807ffc25ee6cef1e5b8c4e7a2f8d3bbb15ca76bb693b8b5644b3b481e1831c09530b8460405161049d91815260200190565b60405180910390a16040518381527ffa3d951cbf852d2a9cc2dfc9fc6b57914afbf57597ecf432c403ed2d74124b2c9060200160405180910390a15090929050565b6104e76105a8565b61046382610b7a565b60408051808201909152600081526060602082015261050d6105a8565b6040518060400160405280600181526020016040518060400160405280601081526020016f596f7520617265206e756d626572203160801b81525081525091506040518060600160405280600281526020016040518060400160405280601081526020016f2cb7ba9030b93290373ab6b132b9101960811b815250815260200160405180602001604052806001151581525081525090509091565b604051806060016040528060008152602001606081526020016105d960405180602001604052806000151581525090565b905290565b6000602082840312156105f057600080fd5b8135600381106105ff57600080fd5b9392505050565b6000815180845260005b8181101561062c57602081850181015186830182015201610610565b506000602082860101526020601f19601f83011685010191505092915050565b80518252600060208201516040602085015261066b6040850182610606565b949350505050565b604081526000610686604083018561064c565b8281036020840152610698818561064c565b95945050505050565b8051825260006020820151606060208501526106c06060850182610606565b604093840151511515949093019390935250919050565b6040815260006106ea604083018561064c565b828103602084015261069881856106a1565b60a08152600061070f60a083018861064c565b828103602084015261072181886106a1565b9050856040840152828103606084015261073b8186610606565b91505082151560808301529695505050505050565b6020815260006105ff602083018461064c565b60006020828403121561077557600080fd5b813567ffffffffffffffff81111561078c57600080fd5b8201604081850312156105ff57600080fd5b634e487b7160e01b600052604160045260246000fd5b6040516020810167ffffffffffffffff811182821017156107d7576107d761079e565b60405290565b604051601f8201601f1916810167ffffffffffffffff811182821017156108065761080661079e565b604052919050565b600082601f83011261081f57600080fd5b813567ffffffffffffffff8111156108395761083961079e565b61084c601f8201601f19166020016107dd565b81815284602083860101111561086157600080fd5b816020850160208301376000918101602001919091529392505050565b60006040828403121561089057600080fd5b6040516040810167ffffffffffffffff82821081831117156108b4576108b461079e565b816040528293508435835260208501359150808211156108d357600080fd5b506108e08582860161080e565b6020830152505092915050565b6000602080838503121561090057600080fd5b823567ffffffffffffffff8082111561091857600080fd5b818501915085601f83011261092c57600080fd5b81358181111561093e5761093e61079e565b8060051b61094d8582016107dd565b918252838101850191858101908984111561096757600080fd5b86860192505b838310156109a3578235858111156109855760008081fd5b6109938b89838a010161087e565b835250918601919086019061096d565b9998505050505050505050565b600060208083016020845280855180835260408601915060408160051b87010192506020870160005b82811015610a0757603f198886030184526109f585835161064c565b945092850192908501906001016109d9565b5092979650505050505050565b60008060408385031215610a2757600080fd5b50508035926020909101359150565b600060208284031215610a4857600080fd5b813567ffffffffffffffff811115610a5f57600080fd5b8201606081850312156105ff57600080fd5b6020815260006105ff60208301846106a1565b634e487b7160e01b600052602160045260246000fd5b60ff818116838216019081111561046357634e487b7160e01b600052601160045260246000fd5b600060ff831680610ae257634e487b7160e01b600052601260045260246000fd5b8060ff84160691505092915050565b600060038310610b1157634e487b7160e01b600052602160045260246000fd5b509081526040602082018190526035908201527f5468616e6b20796f7520666f7220706c6179696e672c2062757420796f7520636060820152743437b9b2903a3432903bb937b733903632ba3a32b960591b608082015260a00190565b6000610463368361087e565b60008136036060811215610b8d57600080fd5b6040516060810167ffffffffffffffff8282108183111715610bb157610bb161079e565b81604052853583526020860135915080821115610bcd57600080fd5b50610bda3682870161080e565b6020830152506020603f1983011215610bf257600080fd5b610bfa6107b4565b915060408401358015158114610c0f57600080fd5b825260408101919091529291505056fea2646970667358221220767e859c4c8487e919dc0cb55cf30b96c667b5f24c22513015d4c89b9af85f6c64736f6c63430008160033",
    "linkReferences": {}
  },
  "methodIdentifiers": {
    "flipFlop(uint256,uint256)": "cf71512c",
    "guessALetter(uint8)": "26da1c9e",
    "mixStructsAndPrimitives()": "73b10c0f",
    "namedSingleStruct()": "811d9aa3",
    "namedTwoMixedStructs()": "e0f7c604",
    "singleNestedStruct((uint256,string,(bool)))": "d3326446",
    "singleSimpleStruct((uint256,string))": "86a5a4c3",
    "twoMixedStructs()": "53fd1043",
    "twoSimpleStructs()": "40e27b10",
    "vecOfStruct((uint256,string)[])": "c8e3a3df"
  },
  "id": 0
}