{
  "abi": [
    {
      "inputs": [
        {
          "internalType": "string",
          "name": "name",
          "type": "string"
        }
      ],
      "stateMutability": "nonpayable",
      "type": "constructor"
    },
    {
      "inputs": [
        {
          "internalType": "enum Example.Letters",
          "name": "answer",
          "type": "uint8"
        },
        {
          "internalType": "string",
          "name": "errorMessage",
          "type": "string"
        }
      ],
      "name": "WrongChoice",
      "type": "error"
    },
    {
      "inputs": [
        {
          "internalType": "uint256",
          "name": "flip",
          "type": "uint256"
        },
        {
          "internalType": "uint256",
          "name": "flop",
          "type": "uint256"
        }
      ],
      "name": "flipFlop",
      "outputs": [
        {
          "internalType": "uint256",
          "name": "_flop",
          "type": "uint256"
        },
        {
          "internalType": "uint256",
          "name": "_flip",
          "type": "uint256"
        }
      ],
      "stateMutability": "pure",
      "type": "function"
    },
    {
      "inputs": [
        {
          "internalType": "enum Example.Letters",
          "name": "guess",
          "type": "uint8"
        }
      ],
      "name": "guessALetter",
      "outputs": [],
      "stateMutability": "pure",
      "type": "function"
    },
    {
      "inputs": [],
      "name": "mixStructsAndPrimitives",
      "outputs": [
        {
          "components": [
            {
              "internalType": "uint256",
              "name": "intVal",
              "type": "uint256"
            },
            {
              "internalType": "string",
              "name": "strVal",
              "type": "string"
            }
          ],
          "internalType": "struct Example.SimpleStruct",
          "name": "simpleStruct",
          "type": "tuple"
        },
        {
          "components": [
            {
              "internalType": "uint256",
              "name": "intVal",
              "type": "uint256"
            },
            {
              "internalType": "string",
              "name": "strVal",
              "type": "string"
            },
            {
              "components": [
                {
                  "internalType": "bool",
                  "name": "boolVal",
                  "type": "bool"
                }
              ],
              "internalType": "struct Example.InnerStruct",
              "name": "innerStruct",
              "type": "tuple"
            }
          ],
          "internalType": "struct Example.NestedStruct",
          "name": "",
          "type": "tuple"
        },
        {
          "internalType": "uint256",
          "name": "",
          "type": "uint256"
        },
        {
          "internalType": "string",
          "name": "_name",
          "type": "string"
        },
        {
          "internalType": "bool",
          "name": "YesOrNo",
          "type": "bool"
        }
      ],
      "stateMutability": "pure",
      "type": "function"
    },
    {
      "inputs": [],
      "name": "namedSingleStruct",
      "outputs": [
        {
          "components": [
            {
              "internalType": "uint256",
              "name": "intVal",
              "type": "uint256"
            },
            {
              "internalType": "string",
              "name": "strVal",
              "type": "string"
            }
          ],
          "internalType": "struct Example.SimpleStruct",
          "name": "struct1",
          "type": "tuple"
        }
      ],
      "stateMutability": "pure",
      "type": "function"
    },
    {
      "inputs": [],
      "name": "namedTwoMixedStructs",
      "outputs": [
        {
          "components": [
            {
              "internalType": "uint256",
              "name": "intVal",
              "type": "uint256"
            },
            {
              "internalType": "string",
              "name": "strVal",
              "type": "string"
            }
          ],
          "internalType": "struct Example.SimpleStruct",
          "name": "simpleStruct",
          "type": "tuple"
        },
        {
          "components": [
            {
              "internalType": "uint256",
              "name": "intVal",
              "type": "uint256"
            },
            {
              "internalType": "string",
              "name": "strVal",
              "type": "string"
            },
            {
              "components": [
                {
                  "internalType": "bool",
                  "name": "boolVal",
                  "type": "bool"
                }
              ],
              "internalType": "struct Example.InnerStruct",
              "name": "innerStruct",
              "type": "tuple"
            }
          ],
          "internalType": "struct Example.NestedStruct",
          "name": "nestedStruct",
          "type": "tuple"
        }
      ],
      "stateMutability": "pure",
      "type": "function"
    },
    {
      "inputs": [
        {
          "components": [
            {
              "internalType": "uint256",
              "name": "intVal",
              "type": "uint256"
            },
            {
              "internalType": "string",
              "name": "strVal",
              "type": "string"
            },
            {
              "components": [
                {
                  "internalType": "bool",
                  "name": "boolVal",
                  "type": "bool"
                }
              ],
              "internalType": "struct Example.InnerStruct",
              "name": "innerStruct",
              "type": "tuple"
            }
          ],
          "internalType": "struct Example.NestedStruct",
          "name": "nestedStruct",
          "type": "tuple"
        }
      ],
      "name": "singleNestedStruct",
      "outputs": [
        {
          "components": [
            {
              "internalType": "uint256",
              "name": "intVal",
              "type": "uint256"
            },
            {
              "internalType": "string",
              "name": "strVal",
              "type": "string"
            },
            {
              "components": [
                {
                  "internalType": "bool",
                  "name": "boolVal",
                  "type": "bool"
                }
              ],
              "internalType": "struct Example.InnerStruct",
              "name": "innerStruct",
              "type": "tuple"
            }
          ],
          "internalType": "struct Example.NestedStruct",
          "name": "",
          "type": "tuple"
        }
      ],
      "stateMutability": "pure",
      "type": "function"
    },
    {
      "inputs": [
        {
          "components": [
            {
              "internalType": "uint256",
              "name": "intVal",
              "type": "uint256"
            },
            {
              "internalType": "string",
              "name": "strVal",
              "type": "string"
            }
          ],
          "internalType": "struct Example.SimpleStruct",
          "name": "simpleStruct",
          "type": "tuple"
        }
      ],
      "name": "singleSimpleStruct",
      "outputs": [
        {
          "components": [
            {
              "internalType": "uint256",
              "name": "intVal",
              "type": "uint256"
            },
            {
              "internalType": "string",
              "name": "strVal",
              "type": "string"
            }
          ],
          "internalType": "struct Example.SimpleStruct",
          "name": "",
          "type": "tuple"
        }
      ],
      "stateMutability": "pure",
      "type": "function"
    },
    {
      "inputs": [],
      "name": "twoMixedStructs",
      "outputs": [
        {
          "components": [
            {
              "internalType": "uint256",
              "name": "intVal",
              "type": "uint256"
            },
            {
              "internalType": "string",
              "name": "strVal",
              "type": "string"
            }
          ],
          "internalType": "struct Example.SimpleStruct",
          "name": "",
          "type": "tuple"
        },
        {
          "components": [
            {
              "internalType": "uint256",
              "name": "intVal",
              "type": "uint256"
            },
            {
              "internalType": "string",
              "name": "strVal",
              "type": "string"
            },
            {
              "components": [
                {
                  "internalType": "bool",
                  "name": "boolVal",
                  "type": "bool"
                }
              ],
              "internalType": "struct Example.InnerStruct",
              "name": "innerStruct",
              "type": "tuple"
            }
          ],
          "internalType": "struct Example.NestedStruct",
          "name": "",
          "type": "tuple"
        }
      ],
      "stateMutability": "pure",
      "type": "function"
    },
    {
      "inputs": [],
      "name": "twoSimpleStructs",
      "outputs": [
        {
          "components": [
            {
              "internalType": "uint256",
              "name": "intVal",
              "type": "uint256"
            },
            {
              "internalType": "string",
              "name": "strVal",
              "type": "string"
            }
          ],
          "internalType": "struct Example.SimpleStruct",
          "name": "",
          "type": "tuple"
        },
        {
          "components": [
            {
              "internalType": "uint256",
              "name": "intVal",
              "type": "uint256"
            },
            {
              "internalType": "string",
              "name": "strVal",
              "type": "string"
            }
          ],
          "internalType": "struct Example.SimpleStruct",
          "name": "",
          "type": "tuple"
        }
      ],
      "stateMutability": "pure",
      "type": "function"
    }
  ],
  "bytecode": {
    "object": "0x60806040523480156200001157600080fd5b5060405162000d0938038062000d09833981016040819052620000349162000060565b6000620000428282620001c4565b505062000290565b634e487b7160e01b600052604160045260246000fd5b600060208083850312156200007457600080fd5b82516001600160401b03808211156200008c57600080fd5b818501915085601f830112620000a157600080fd5b815181811115620000b657620000b66200004a565b604051601f8201601f19908116603f01168101908382118183101715620000e157620000e16200004a565b816040528281528886848701011115620000fa57600080fd5b600093505b828410156200011e5784840186015181850187015292850192620000ff565b600086848301015280965050505050505092915050565b600181811c908216806200014a57607f821691505b6020821081036200016b57634e487b7160e01b600052602260045260246000fd5b50919050565b601f821115620001bf57600081815260208120601f850160051c810160208610156200019a5750805b601f850160051c820191505b81811015620001bb57828155600101620001a6565b5050505b505050565b81516001600160401b03811115620001e057620001e06200004a565b620001f881620001f1845462000135565b8462000171565b602080601f831160018114620002305760008415620002175750858301515b600019600386901b1c1916600185901b178555620001bb565b600085815260208120601f198616915b82811015620002615788860151825594840194600190910190840162000240565b5085821015620002805787850151600019600388901b60f8161c191681555b5050505050600190811b01905550565b610a6980620002a06000396000f3fe608060405234801561001057600080fd5b50600436106100935760003560e01c8063811d9aa311610066578063811d9aa31461017f57806386a5a4c3146101d8578063cf71512c146101eb578063d332644614610211578063e0f7c6041461023157600080fd5b806326da1c9e1461009857806340e27b10146100ad57806353fd10431461015057806373b10c0f14610166575b600080fd5b6100ab6100a636600461053d565b610239565b005b604080518082018252600080825260606020928301819052835180850185529182529082015281518083018352600181528251808401845260108082526f596f7520617265206e756d626572203160801b82850152828401919091528351808501855260028152845180860186529182526f2cb7ba9030b93290373ab6b132b9101960811b828501529283015291516101479291906105d2565b60405180910390f35b61015861029f565b604051610147929190610636565b61016e610345565b60405161014795949392919061065b565b60408051808201825260008152606060209182015281518083018352600181528251808401909352601083526f596f7520617265206e756d626572203160801b83830152908101919091525b60405161014791906106af565b6101cb6101e63660046106c2565b61041a565b6101fc6101f93660046106fd565b91565b60408051928352602083019190915201610147565b61022461021f36600461071f565b61043e565b604051610147919061075a565b61015861044f565b6000600360018360028111156102515761025161076d565b61025b9190610783565b61026591906107aa565b60ff1660028111156102795761027961076d565b90508060405163304ecc3560e21b815260040161029691906107da565b60405180910390fd5b6040805180820190915260008152606060208201526102bc610507565b505060408051808201825260018082528251808401845260108082526f596f7520617265206e756d626572203160801b60208381019190915280850192909252845160608101865260028152855180870187529182526f2cb7ba9030b93290373ab6b132b9101960811b8284015280830191909152845191820185529181529281019290925291565b604080518082019091526000815260606020820152610362610507565b505060408051808201825260018082528251808401845260108082526f596f7520617265206e756d626572203160801b60208381019190915280850192909252845160608101865260028152855180870187529182526f2cb7ba9030b93290373ab6b132b9101960811b828401528083019190915284518083018652838152818601528451808601909552601385527214995d1d5c9b951e5c195cd0dbdb9d1c9858dd606a1b91850191909152919260009091929394565b60408051808201909152600081526060602082015261043882610923565b92915050565b610446610507565b6104388261098e565b60408051808201909152600081526060602082015261046c610507565b6040518060400160405280600181526020016040518060400160405280601081526020016f596f7520617265206e756d626572203160801b81525081525091506040518060600160405280600281526020016040518060400160405280601081526020016f2cb7ba9030b93290373ab6b132b9101960811b815250815260200160405180602001604052806001151581525081525090509091565b6040518060600160405280600081526020016060815260200161053860405180602001604052806000151581525090565b905290565b60006020828403121561054f57600080fd5b81356003811061055e57600080fd5b9392505050565b6000815180845260005b8181101561058b5760208185018101518683018201520161056f565b506000602082860101526020601f19601f83011685010191505092915050565b8051825260006020820151604060208501526105ca6040850182610565565b949350505050565b6040815260006105e560408301856105ab565b82810360208401526105f781856105ab565b95945050505050565b80518252600060208201516060602085015261061f6060850182610565565b604093840151511515949093019390935250919050565b60408152600061064960408301856105ab565b82810360208401526105f78185610600565b60a08152600061066e60a08301886105ab565b82810360208401526106808188610600565b9050856040840152828103606084015261069a8186610565565b91505082151560808301529695505050505050565b60208152600061055e60208301846105ab565b6000602082840312156106d457600080fd5b813567ffffffffffffffff8111156106eb57600080fd5b82016040818503121561055e57600080fd5b6000806040838503121561071057600080fd5b50508035926020909101359150565b60006020828403121561073157600080fd5b813567ffffffffffffffff81111561074857600080fd5b82016060818503121561055e57600080fd5b60208152600061055e6020830184610600565b634e487b7160e01b600052602160045260246000fd5b60ff818116838216019081111561043857634e487b7160e01b600052601160045260246000fd5b600060ff8316806107cb57634e487b7160e01b600052601260045260246000fd5b8060ff84160691505092915050565b6000600383106107fa57634e487b7160e01b600052602160045260246000fd5b509081526040602082018190526035908201527f5468616e6b20796f7520666f7220706c6179696e672c2062757420796f7520636060820152743437b9b2903a3432903bb937b733903632ba3a32b960591b608082015260a00190565b634e487b7160e01b600052604160045260246000fd5b6040516020810167ffffffffffffffff8111828210171561089057610890610857565b60405290565b600082601f8301126108a757600080fd5b813567ffffffffffffffff808211156108c2576108c2610857565b604051601f8301601f19908116603f011681019082821181831017156108ea576108ea610857565b8160405283815286602085880101111561090357600080fd5b836020870160208301376000602085830101528094505050505092915050565b60006040823603121561093557600080fd5b6040516040810167ffffffffffffffff828210818311171561095957610959610857565b8160405284358352602085013591508082111561097557600080fd5b5061098236828601610896565b60208301525092915050565b600081360360608112156109a157600080fd5b6040516060810167ffffffffffffffff82821081831117156109c5576109c5610857565b816040528535835260208601359150808211156109e157600080fd5b506109ee36828701610896565b6020830152506020603f1983011215610a0657600080fd5b610a0e61086d565b915060408401358015158114610a2357600080fd5b825260408101919091529291505056fea2646970667358221220a2d7198137a4d1facfa1635ec9a7f2b1829d00aedb902188295f701c98a3e8f564736f6c63430008130033",
    "linkReferences": {}
  },
  "methodIdentifiers": {
    "flipFlop(uint256,uint256)": "cf71512c",
    "guessALetter(uint8)": "26da1c9e",
    "mixStructsAndPrimitives()": "73b10c0f",
    "namedSingleStruct()": "811d9aa3",
    "namedTwoMixedStructs()": "e0f7c604",
    "singleNestedStruct((uint256,string,(bool)))": "d3326446",
    "singleSimpleStruct((uint256,string))": "86a5a4c3",
    "twoMixedStructs()": "53fd1043",
    "twoSimpleStructs()": "40e27b10"
  },
  "id": 0
}