{
  "abi": [
    {
      "type": "function",
      "name": "emitNoEvents",
      "inputs": [
        {
          "name": "x",
          "type": "uint256",
          "internalType": "uint256"
        },
        {
          "name": "y",
          "type": "uint256",
          "internalType": "uint256"
        }
      ],
      "outputs": [
        {
          "name": "added",
          "type": "uint256",
          "internalType": "uint256"
        }
      ],
      "stateMutability": "pure"
    },
    {
      "type": "function",
      "name": "emitOneEvent",
      "inputs": [
        {
          "name": "value",
          "type": "uint256",
          "internalType": "uint256"
        },
        {
          "name": "who",
          "type": "address",
          "internalType": "address"
        }
      ],
      "outputs": [],
      "stateMutability": "nonpayable"
    },
    {
      "type": "function",
      "name": "emitTwoEvents",
      "inputs": [
        {
          "name": "value",
          "type": "uint256",
          "internalType": "uint256"
        },
        {
          "name": "who",
          "type": "address",
          "internalType": "address"
        }
      ],
      "outputs": [],
      "stateMutability": "nonpayable"
    },
    {
      "type": "event",
      "name": "EventA",
      "inputs": [
        {
          "name": "who",
          "type": "address",
          "indexed": true,
          "internalType": "address"
        },
        {
          "name": "value",
          "type": "uint256",
          "indexed": false,
          "internalType": "uint256"
        }
      ],
      "anonymous": false
    },
    {
      "type": "event",
      "name": "EventB",
      "inputs": [],
      "anonymous": false
    }
  ],
  "bytecode": {
    "object": "0x608060405234801561001057600080fd5b50610214806100206000396000f3fe608060405234801561001057600080fd5b50600436106100415760003560e01c8063307324fd14610046578063b517b0d81461005b578063c79ba18b1461006e575b600080fd5b61005961005436600461015f565b610093565b005b61005961006936600461015f565b6100da565b61008161007c36600461019b565b61014a565b60405190815260200160405180910390f35b806001600160a01b03167f9796ec8d639e8a8082085b1912b0c782def636bb8e5bde841892baff0f925433836040516100ce91815260200190565b60405180910390a25050565b806001600160a01b03167f9796ec8d639e8a8082085b1912b0c782def636bb8e5bde841892baff0f9254338360405161011591815260200190565b60405180910390a26040517f72c635b4ade595df848fdc26063ba6c3f276cd7121dadbacb0064e1e3a61961490600090a15050565b600061015682846101bd565b90505b92915050565b6000806040838503121561017257600080fd5b8235915060208301356001600160a01b038116811461019057600080fd5b809150509250929050565b600080604083850312156101ae57600080fd5b50508035926020909101359150565b8082018082111561015957634e487b7160e01b600052601160045260246000fdfea2646970667358221220f4fc44b59a7d7fc9f695214dbacf39738bcfb36286157033034ece49be233d7564736f6c63430008160033",
    "linkReferences": {}
  },
  "methodIdentifiers": {
    "emitNoEvents(uint256,uint256)": "c79ba18b",
    "emitOneEvent(uint256,address)": "307324fd",
    "emitTwoEvents(uint256,address)": "b517b0d8"
  },
  "id": 0
}