{
  "abi": [
    {
      "type": "function",
      "name": "buildStruct",
      "inputs": [],
      "outputs": [
        {
          "name": "",
          "type": "tuple",
          "internalType": "struct ContractB.StructsB",
          "components": [
            {
              "name": "structA",
              "type": "tuple",
              "internalType": "struct ContractA.StructsA",
              "components": [
                {
                  "name": "intVal",
                  "type": "uint256",
                  "internalType": "uint256"
                },
                {
                  "name": "strVal",
                  "type": "string",
                  "internalType": "string"
                }
              ]
            },
            {
              "name": "structB",
              "type": "tuple",
              "internalType": "struct ContractB.InnerStruct",
              "components": [
                {
                  "name": "intVal",
                  "type": "uint256",
                  "internalType": "uint256"
                },
                {
                  "name": "strVal",
                  "type": "string",
                  "internalType": "string"
                }
              ]
            }
          ]
        }
      ],
      "stateMutability": "pure"
    }
  ],
  "bytecode": {
    "object": "0x608060405234801561001057600080fd5b506101e2806100206000396000f3fe608060405234801561001057600080fd5b506004361061002b5760003560e01c8063a80476c814610030575b600080fd5b61003861004e565b604051610045919061016a565b60405180910390f35b6100566100cc565b6040518060400160405280604051806040016040528060018152602001604051806040016040528060018152602001606160f81b8152508152508152602001604051806040016040528060028152602001604051806040016040528060018152602001603160f91b815250815250815250905090565b6040805160808101825260009181019182526060808201529081908152602001610109604051806040016040528060008152602001606081525090565b905290565b80518252600060208083015160406020860152805180604087015260005b818110156101485782810184015187820160600152830161012c565b506000606082880101526060601f19601f830116870101935050505092915050565b602081526000825160406020840152610186606084018261010e565b90506020840151601f198483030160408501526101a3828261010e565b9594505050505056fea264697066735822122008df8170b2c76e5c63907987a567db4b097987ade9d37c5e5ffeabefcb313f9f64736f6c63430008160033",
    "linkReferences": {}
  },
  "methodIdentifiers": {
    "buildStruct()": "a80476c8"
  },
  "id": 2
}