{
  "abi": [
    {
      "type": "function",
      "name": "buildStruct",
      "inputs": [],
      "outputs": [
        {
          "name": "",
          "type": "tuple",
          "internalType": "struct ContractB.StructsB",
          "components": [
            {
              "name": "structA",
              "type": "tuple",
              "internalType": "struct ContractA.StructsA",
              "components": [
                {
                  "name": "intVal",
                  "type": "uint256",
                  "internalType": "uint256"
                },
                {
                  "name": "strVal",
                  "type": "string",
                  "internalType": "string"
                }
              ]
            }
          ]
        }
      ],
      "stateMutability": "pure"
    }
  ],
  "bytecode": {
    "object": "0x608060405234801561001057600080fd5b50610132806100206000396000f3fe6080604052348015600f57600080fd5b506004361060285760003560e01c8063a80476c814602d575b600080fd5b607f60408051606080820183526000602083019081529282015290815250604080516060810182526001602080830182815284518086018652928352606160f81b918301919091529282015290815290565b604051608a91906093565b60405180910390f35b60006020808352835181828501528051604085015281810151905060406060850152805180608086015260005b8181101560da5782810184015186820160a00152830160c0565b50600060a0828701015260a0601f19601f83011686010193505050509291505056fea26469706673582212208c8547411f026293c9fbe38f6c63e3a347f71330a20cae6d96fd23b6dab9cb6b64736f6c63430008160033",
    "linkReferences": {}
  },
  "methodIdentifiers": {
    "buildStruct()": "a80476c8"
  },
  "id": 2
}