{
  "abi": [
    {
      "type": "function",
      "name": "mixStructsAndPrimitives",
      "inputs": [],
      "outputs": [
        {
          "name": "simpleStruct",
          "type": "tuple",
          "internalType": "struct ReturnTypes.SimpleStruct",
          "components": [
            {
              "name": "intVal",
              "type": "uint256",
              "internalType": "uint256"
            },
            {
              "name": "strVal",
              "type": "string",
              "internalType": "string"
            }
          ]
        },
        {
          "name": "",
          "type": "tuple",
          "internalType": "struct ReturnTypes.NestedStruct",
          "components": [
            {
              "name": "intVal",
              "type": "uint256",
              "internalType": "uint256"
            },
            {
              "name": "strVal",
              "type": "string",
              "internalType": "string"
            },
            {
              "name": "innerStruct",
              "type": "tuple",
              "internalType": "struct ReturnTypes.InnerStruct",
              "components": [
                {
                  "name": "boolVal",
                  "type": "bool",
                  "internalType": "bool"
                }
              ]
            }
          ]
        },
        {
          "name": "",
          "type": "uint256",
          "internalType": "uint256"
        },
        {
          "name": "name",
          "type": "string",
          "internalType": "string"
        },
        {
          "name": "YesOrNo",
          "type": "bool",
          "internalType": "bool"
        }
      ],
      "stateMutability": "pure"
    },
    {
      "type": "function",
      "name": "namedSingleStruct",
      "inputs": [],
      "outputs": [
        {
          "name": "struct1",
          "type": "tuple",
          "internalType": "struct ReturnTypes.SimpleStruct",
          "components": [
            {
              "name": "intVal",
              "type": "uint256",
              "internalType": "uint256"
            },
            {
              "name": "strVal",
              "type": "string",
              "internalType": "string"
            }
          ]
        }
      ],
      "stateMutability": "pure"
    },
    {
      "type": "function",
      "name": "namedSingleValue",
      "inputs": [
        {
          "name": "x",
          "type": "uint256",
          "internalType": "uint256"
        },
        {
          "name": "y",
          "type": "uint256",
          "internalType": "uint256"
        }
      ],
      "outputs": [
        {
          "name": "added",
          "type": "uint256",
          "internalType": "uint256"
        }
      ],
      "stateMutability": "pure"
    },
    {
      "type": "function",
      "name": "namedTwoMixedStructs",
      "inputs": [],
      "outputs": [
        {
          "name": "simpleStruct",
          "type": "tuple",
          "internalType": "struct ReturnTypes.SimpleStruct",
          "components": [
            {
              "name": "intVal",
              "type": "uint256",
              "internalType": "uint256"
            },
            {
              "name": "strVal",
              "type": "string",
              "internalType": "string"
            }
          ]
        },
        {
          "name": "nestedStruct",
          "type": "tuple",
          "internalType": "struct ReturnTypes.NestedStruct",
          "components": [
            {
              "name": "intVal",
              "type": "uint256",
              "internalType": "uint256"
            },
            {
              "name": "strVal",
              "type": "string",
              "internalType": "string"
            },
            {
              "name": "innerStruct",
              "type": "tuple",
              "internalType": "struct ReturnTypes.InnerStruct",
              "components": [
                {
                  "name": "boolVal",
                  "type": "bool",
                  "internalType": "bool"
                }
              ]
            }
          ]
        }
      ],
      "stateMutability": "pure"
    },
    {
      "type": "function",
      "name": "namedTwoValues",
      "inputs": [
        {
          "name": "x",
          "type": "uint256",
          "internalType": "uint256"
        },
        {
          "name": "y",
          "type": "uint256",
          "internalType": "uint256"
        }
      ],
      "outputs": [
        {
          "name": "flip",
          "type": "uint256",
          "internalType": "uint256"
        },
        {
          "name": "flop",
          "type": "uint256",
          "internalType": "uint256"
        }
      ],
      "stateMutability": "pure"
    },
    {
      "type": "function",
      "name": "noNameSingleValue",
      "inputs": [
        {
          "name": "x",
          "type": "uint256",
          "internalType": "uint256"
        }
      ],
      "outputs": [
        {
          "name": "",
          "type": "uint256",
          "internalType": "uint256"
        }
      ],
      "stateMutability": "pure"
    },
    {
      "type": "function",
      "name": "noNameTwoValues",
      "inputs": [
        {
          "name": "s",
          "type": "string",
          "internalType": "string"
        }
      ],
      "outputs": [
        {
          "name": "",
          "type": "string",
          "internalType": "string"
        },
        {
          "name": "",
          "type": "uint256",
          "internalType": "uint256"
        }
      ],
      "stateMutability": "pure"
    },
    {
      "type": "function",
      "name": "singleNestedStruct",
      "inputs": [],
      "outputs": [
        {
          "name": "",
          "type": "tuple",
          "internalType": "struct ReturnTypes.NestedStruct",
          "components": [
            {
              "name": "intVal",
              "type": "uint256",
              "internalType": "uint256"
            },
            {
              "name": "strVal",
              "type": "string",
              "internalType": "string"
            },
            {
              "name": "innerStruct",
              "type": "tuple",
              "internalType": "struct ReturnTypes.InnerStruct",
              "components": [
                {
                  "name": "boolVal",
                  "type": "bool",
                  "internalType": "bool"
                }
              ]
            }
          ]
        }
      ],
      "stateMutability": "pure"
    },
    {
      "type": "function",
      "name": "singleNestedStructArray",
      "inputs": [],
      "outputs": [
        {
          "name": "",
          "type": "tuple[]",
          "internalType": "struct ReturnTypes.NestedStruct[]",
          "components": [
            {
              "name": "intVal",
              "type": "uint256",
              "internalType": "uint256"
            },
            {
              "name": "strVal",
              "type": "string",
              "internalType": "string"
            },
            {
              "name": "innerStruct",
              "type": "tuple",
              "internalType": "struct ReturnTypes.InnerStruct",
              "components": [
                {
                  "name": "boolVal",
                  "type": "bool",
                  "internalType": "bool"
                }
              ]
            }
          ]
        }
      ],
      "stateMutability": "pure"
    },
    {
      "type": "function",
      "name": "singleSimpleStruct",
      "inputs": [],
      "outputs": [
        {
          "name": "",
          "type": "tuple",
          "internalType": "struct ReturnTypes.SimpleStruct",
          "components": [
            {
              "name": "intVal",
              "type": "uint256",
              "internalType": "uint256"
            },
            {
              "name": "strVal",
              "type": "string",
              "internalType": "string"
            }
          ]
        }
      ],
      "stateMutability": "pure"
    },
    {
      "type": "function",
      "name": "twoMixedStructs",
      "inputs": [],
      "outputs": [
        {
          "name": "",
          "type": "tuple",
          "internalType": "struct ReturnTypes.SimpleStruct",
          "components": [
            {
              "name": "intVal",
              "type": "uint256",
              "internalType": "uint256"
            },
            {
              "name": "strVal",
              "type": "string",
              "internalType": "string"
            }
          ]
        },
        {
          "name": "",
          "type": "tuple",
          "internalType": "struct ReturnTypes.NestedStruct",
          "components": [
            {
              "name": "intVal",
              "type": "uint256",
              "internalType": "uint256"
            },
            {
              "name": "strVal",
              "type": "string",
              "internalType": "string"
            },
            {
              "name": "innerStruct",
              "type": "tuple",
              "internalType": "struct ReturnTypes.InnerStruct",
              "components": [
                {
                  "name": "boolVal",
                  "type": "bool",
                  "internalType": "bool"
                }
              ]
            }
          ]
        }
      ],
      "stateMutability": "pure"
    },
    {
      "type": "function",
      "name": "twoSimpleStructs",
      "inputs": [],
      "outputs": [
        {
          "name": "",
          "type": "tuple",
          "internalType": "struct ReturnTypes.SimpleStruct",
          "components": [
            {
              "name": "intVal",
              "type": "uint256",
              "internalType": "uint256"
            },
            {
              "name": "strVal",
              "type": "string",
              "internalType": "string"
            }
          ]
        },
        {
          "name": "",
          "type": "tuple",
          "internalType": "struct ReturnTypes.SimpleStruct",
          "components": [
            {
              "name": "intVal",
              "type": "uint256",
              "internalType": "uint256"
            },
            {
              "name": "strVal",
              "type": "string",
              "internalType": "string"
            }
          ]
        }
      ],
      "stateMutability": "pure"
    }
  ],
  "bytecode": {
    "object": "0x608060405234801561001057600080fd5b506109f0806100206000396000f3fe608060405234801561001057600080fd5b50600436106100b45760003560e01c8063811d9aa311610071578063811d9aa31461018d578063879896af1461020f578063c567c2f314610231578063d6c1a03e14610246578063e0f7c6041461026c578063fa1fac8f1461027457600080fd5b8063389e9102146100b957806340e27b10146100dd57806353fd1043146101775780636456bc791461018d578063730fe90e146101e357806373b10c0f146101f6575b600080fd5b6100ca6100c736600461068b565b90565b6040519081526020015b60405180910390f35b604080518082018252600080825260606020928301819052835180850185529182529082015281518083018352600181528251808401845260108082526f596f7520617265206e756d626572203160801b82850152828401919091528351808501855260028152845180860186529182526f2cb7ba9030b93290373ab6b132b9101960811b828501529283015291516100d4929190610711565b61017f610289565b6040516100d4929190610775565b604080518082018252600081526060602091820152815180830183526001815282518084018452601081526f596f7520617265206e756d626572203160801b818401529181019190915290516100d4919061079a565b6100ca6101f13660046107ad565b61032f565b6101fe610344565b6040516100d49594939291906107cf565b61022361021d366004610839565b90600290565b6040516100d49291906108ea565b610239610419565b6040516100d4919061090c565b6102576102543660046107ad565b91565b604080519283526020830191909152016100d4565b61017f61047b565b61027c610533565b6040516100d4919061091f565b6040805180820190915260008152606060208201526102a6610655565b505060408051808201825260018082528251808401845260108082526f596f7520617265206e756d626572203160801b60208381019190915280850192909252845160608101865260028152855180870187529182526f2cb7ba9030b93290373ab6b132b9101960811b8284015280830191909152845191820185529181529281019290925291565b600061033b8284610983565b90505b92915050565b604080518082019091526000815260606020820152610361610655565b505060408051808201825260018082528251808401845260108082526f596f7520617265206e756d626572203160801b60208381019190915280850192909252845160608101865260028152855180870187529182526f2cb7ba9030b93290373ab6b132b9101960811b828401528083019190915284518083018652838152818601528451808601909552601385527214995d1d5c9b951e5c195cd0dbdb9d1c9858dd606a1b91850191909152919260009091929394565b610421610655565b6040518060600160405280600181526020016040518060400160405280601081526020016f596f7520617265206e756d626572203160801b8152508152602001604051806020016040528060011515815250815250905090565b604080518082019091526000815260606020820152610498610655565b6040518060400160405280600181526020016040518060400160405280601081526020016f596f7520617265206e756d626572203160801b81525081525091506040518060600160405280600281526020016040518060400160405280601081526020016f2cb7ba9030b93290373ab6b132b9101960811b815250815260200160405180602001604052806001151581525081525090509091565b604080516002808252606082810190935260009190816020015b610555610655565b81526020019060019003908161054d5790505090506040518060600160405280600181526020016040518060400160405280601081526020016f596f7520617265206e756d626572203160801b8152508152602001604051806020016040528060011515815250815250816000815181106105d2576105d26109a4565b60200260200101819052506040518060600160405280600281526020016040518060400160405280601081526020016f2cb7ba9030b93290373ab6b132b9101960811b815250815260200160405180602001604052806001151581525081525081600181518110610645576106456109a4565b6020908102919091010152919050565b6040518060600160405280600081526020016060815260200161068660405180602001604052806000151581525090565b905290565b60006020828403121561069d57600080fd5b5035919050565b6000815180845260005b818110156106ca576020818501810151868301820152016106ae565b506000602082860101526020601f19601f83011685010191505092915050565b80518252600060208201516040602085015261070960408501826106a4565b949350505050565b60408152600061072460408301856106ea565b828103602084015261073681856106ea565b95945050505050565b80518252600060208201516060602085015261075e60608501826106a4565b604093840151511515949093019390935250919050565b60408152600061078860408301856106ea565b8281036020840152610736818561073f565b60208152600061033b60208301846106ea565b600080604083850312156107c057600080fd5b50508035926020909101359150565b60a0815260006107e260a08301886106ea565b82810360208401526107f4818861073f565b9050856040840152828103606084015261080e81866106a4565b91505082151560808301529695505050505050565b634e487b7160e01b600052604160045260246000fd5b60006020828403121561084b57600080fd5b813567ffffffffffffffff8082111561086357600080fd5b818401915084601f83011261087757600080fd5b81358181111561088957610889610823565b604051601f8201601f19908116603f011681019083821181831017156108b1576108b1610823565b816040528281528760208487010111156108ca57600080fd5b826020860160208301376000928101602001929092525095945050505050565b6040815260006108fd60408301856106a4565b90508260208301529392505050565b60208152600061033b602083018461073f565b600060208083016020845280855180835260408601915060408160051b87010192506020870160005b8281101561097657603f1988860301845261096485835161073f565b94509285019290850190600101610948565b5092979650505050505050565b8082018082111561033e57634e487b7160e01b600052601160045260246000fd5b634e487b7160e01b600052603260045260246000fdfea26469706673582212208061bb9dfb6ca91986804236640ed2dfa852ed35a004e66befcbab10e8c17ac064736f6c63430008160033",
    "linkReferences": {}
  },
  "methodIdentifiers": {
    "mixStructsAndPrimitives()": "73b10c0f",
    "namedSingleStruct()": "811d9aa3",
    "namedSingleValue(uint256,uint256)": "730fe90e",
    "namedTwoMixedStructs()": "e0f7c604",
    "namedTwoValues(uint256,uint256)": "d6c1a03e",
    "noNameSingleValue(uint256)": "389e9102",
    "noNameTwoValues(string)": "879896af",
    "singleNestedStruct()": "c567c2f3",
    "singleNestedStructArray()": "fa1fac8f",
    "singleSimpleStruct()": "6456bc79",
    "twoMixedStructs()": "53fd1043",
    "twoSimpleStructs()": "40e27b10"
  },
  "id": 0
}