{
  "abi": [
    {
      "type": "function",
      "name": "TransactFunction",
      "inputs": [],
      "outputs": [],
      "stateMutability": "nonpayable"
    },
    {
      "type": "event",
      "name": "Success",
      "inputs": [],
      "anonymous": false
    }
  ],
  "bytecode": {
    "object": "0x6080604052348015600f57600080fd5b5060968061001e6000396000f3fe6080604052348015600f57600080fd5b506004361060285760003560e01c8063e437702614602d575b600080fd5b60336035565b005b6040517f395a9ab3d1230297d931e1fa224ca597ca0e45f620c1aeb74b512bfcc6f66aab90600090a156fea26469706673582212205efd683901ebe890a4751a30eb78d980861b5e0a81ad24a35489c4a1eeb9fe3764736f6c63430008160033",
    "linkReferences": {}
  },
  "methodIdentifiers": {
    "TransactFunction()": "e4377026"
  },
  "id": 0
}